{
  "abi": [
    {
      "inputs": [
        {
          "internalType": "address",
          "name": "newGameController",
          "type": "address"
        }
      ],
      "stateMutability": "nonpayable",
      "type": "constructor"
    },
    {
      "inputs": [],
      "name": "PendingDistributions",
      "type": "error"
    },
    {
      "anonymous": false,
      "inputs": [],
      "name": "GameStarted",
      "type": "event"
    },
    {
      "anonymous": false,
      "inputs": [
        {
          "indexed": false,
          "internalType": "bytes",
          "name": "reason",
          "type": "bytes"
        }
      ],
      "name": "GameStopped",
      "type": "event"
    },
    {
      "anonymous": false,
      "inputs": [
        {
          "indexed": true,
          "internalType": "address",
          "name": "previousOwner",
          "type": "address"
        },
        {
          "indexed": true,
          "internalType": "address",
          "name": "newOwner",
          "type": "address"
        }
      ],
      "name": "OwnershipTransferred",
      "type": "event"
    },
    {
      "anonymous": false,
      "inputs": [
        {
          "indexed": false,
          "internalType": "bytes",
          "name": "poolId",
          "type": "bytes"
        },
        {
          "indexed": false,
          "internalType": "uint256",
          "name": "totalWinners",
          "type": "uint256"
        },
        {
          "indexed": false,
          "internalType": "uint256",
          "name": "from",
          "type": "uint256"
        },
        {
          "indexed": false,
          "internalType": "uint256",
          "name": "to",
          "type": "uint256"
        },
        {
          "indexed": false,
          "internalType": "int64",
          "name": "timestamp",
          "type": "int64"
        }
      ],
      "name": "RoundDistributed",
      "type": "event"
    },
    {
      "anonymous": false,
      "inputs": [
        {
          "indexed": false,
          "internalType": "bytes",
          "name": "poolId",
          "type": "bytes"
        },
        {
          "indexed": false,
          "internalType": "int64",
          "name": "timestamp",
          "type": "int64"
        },
        {
          "indexed": false,
          "internalType": "int32",
          "name": "startPrice",
          "type": "int32"
        },
        {
          "indexed": false,
          "internalType": "int32",
          "name": "endPrice",
          "type": "int32"
        },
        {
          "indexed": true,
          "internalType": "bytes",
          "name": "indexedPoolId",
          "type": "bytes"
        }
      ],
      "name": "RoundEnded",
      "type": "event"
    },
    {
      "anonymous": false,
      "inputs": [
        {
          "indexed": false,
          "internalType": "bytes",
          "name": "poolId",
          "type": "bytes"
        },
        {
          "indexed": false,
          "internalType": "int64",
          "name": "timestamp",
          "type": "int64"
        },
        {
          "indexed": false,
          "internalType": "int32",
          "name": "price",
          "type": "int32"
        },
        {
          "indexed": false,
          "internalType": "uint256",
          "name": "minTradeAmount",
          "type": "uint256"
        },
        {
          "indexed": false,
          "internalType": "uint256",
          "name": "maxTradeAmount",
          "type": "uint256"
        },
        {
          "indexed": false,
          "internalType": "uint256",
          "name": "poolTradesLimit",
          "type": "uint256"
        },
        {
          "indexed": true,
          "internalType": "bytes",
          "name": "indexedPoolId",
          "type": "bytes"
        }
      ],
      "name": "RoundStarted",
      "type": "event"
    },
    {
      "anonymous": false,
      "inputs": [
        {
          "indexed": false,
          "internalType": "bytes",
          "name": "poolId",
          "type": "bytes"
        },
        {
          "indexed": false,
          "internalType": "address",
          "name": "sender",
          "type": "address"
        },
        {
          "indexed": false,
          "internalType": "uint256",
          "name": "amount",
          "type": "uint256"
        },
        {
          "indexed": false,
          "internalType": "string",
          "name": "prediction",
          "type": "string"
        },
        {
          "indexed": false,
          "internalType": "uint256",
          "name": "newTotal",
          "type": "uint256"
        },
        {
          "indexed": true,
          "internalType": "bytes",
          "name": "indexedPoolId",
          "type": "bytes"
        },
        {
          "indexed": true,
          "internalType": "address",
          "name": "indexedSender",
          "type": "address"
        },
        {
          "indexed": false,
          "internalType": "string",
          "name": "avatarUrl",
          "type": "string"
        },
        {
          "indexed": false,
          "internalType": "string",
          "name": "countryCode",
          "type": "string"
        },
        {
          "indexed": false,
          "internalType": "int64",
          "name": "roundStartTime",
          "type": "int64"
        },
        {
          "indexed": false,
          "internalType": "string",
          "name": "whiteLabelId",
          "type": "string"
        }
      ],
      "name": "TradePlaced",
      "type": "event"
    },
    {
      "anonymous": false,
      "inputs": [
        {
          "indexed": false,
          "internalType": "bytes",
          "name": "poolId",
          "type": "bytes"
        },
        {
          "indexed": false,
          "internalType": "address",
          "name": "sender",
          "type": "address"
        },
        {
          "indexed": false,
          "internalType": "uint256",
          "name": "amount",
          "type": "uint256"
        },
        {
          "indexed": false,
          "internalType": "string",
          "name": "whiteLabelId",
          "type": "string"
        }
      ],
      "name": "TradeReturned",
      "type": "event"
    },
    {
      "anonymous": false,
      "inputs": [
        {
          "indexed": false,
          "internalType": "bytes",
          "name": "poolId",
          "type": "bytes"
        },
        {
          "indexed": false,
          "internalType": "address",
          "name": "sender",
          "type": "address"
        },
        {
          "indexed": false,
          "internalType": "uint256",
          "name": "tradeAmount",
          "type": "uint256"
        },
        {
          "indexed": false,
          "internalType": "uint256",
          "name": "winningsAmount",
          "type": "uint256"
        },
        {
          "indexed": true,
          "internalType": "address",
          "name": "indexedSender",
          "type": "address"
        },
        {
          "indexed": false,
          "internalType": "string",
          "name": "whiteLabelId",
          "type": "string"
        }
      ],
      "name": "TradeWinningsSent",
      "type": "event"
    },
    {
      "inputs": [
        {
          "internalType": "address",
          "name": "newGameController",
          "type": "address"
        }
      ],
      "name": "changeGameControllerAddress",
      "outputs": [],
      "stateMutability": "nonpayable",
      "type": "function"
    },
    {
      "inputs": [
        {
          "internalType": "address",
          "name": "newFeeAddress",
          "type": "address"
        }
      ],
      "name": "changeGameFeeAddress",
      "outputs": [],
      "stateMutability": "nonpayable",
      "type": "function"
    },
    {
      "inputs": [
        {
          "internalType": "uint8",
          "name": "newFeePercentage",
          "type": "uint8"
        }
      ],
      "name": "changeGameFeePercentage",
      "outputs": [],
      "stateMutability": "nonpayable",
      "type": "function"
    },
    {
      "inputs": [
        {
          "internalType": "bytes",
          "name": "poolId",
          "type": "bytes"
        },
        {
          "internalType": "uint256",
          "name": "minBetAmount",
          "type": "uint256"
        },
        {
          "internalType": "uint256",
          "name": "maxBetAmount",
          "type": "uint256"
        },
        {
          "internalType": "uint256",
          "name": "poolBetsLimit",
          "type": "uint256"
        }
      ],
      "name": "createPool",
      "outputs": [],
      "stateMutability": "nonpayable",
      "type": "function"
    },
    {
      "inputs": [
        {
          "internalType": "bytes",
          "name": "poolId",
          "type": "bytes"
        },
        {
          "internalType": "uint32",
          "name": "batchSize",
          "type": "uint32"
        },
        {
          "internalType": "int64",
          "name": "timeMS",
          "type": "int64"
        }
      ],
      "name": "distribute",
      "outputs": [],
      "stateMutability": "nonpayable",
      "type": "function"
    },
    {
      "inputs": [],
      "name": "feeAddress",
      "outputs": [
        {
          "internalType": "address",
          "name": "",
          "type": "address"
        }
      ],
      "stateMutability": "view",
      "type": "function"
    },
    {
      "inputs": [],
      "name": "feePercentage",
      "outputs": [
        {
          "internalType": "uint8",
          "name": "",
          "type": "uint8"
        }
      ],
      "stateMutability": "view",
      "type": "function"
    },
    {
      "inputs": [],
      "name": "gameController",
      "outputs": [
        {
          "internalType": "address",
          "name": "",
          "type": "address"
        }
      ],
      "stateMutability": "view",
      "type": "function"
    },
    {
      "inputs": [
        {
          "internalType": "bytes",
          "name": "poolId",
          "type": "bytes"
        }
      ],
      "name": "hasPendingDistributions",
      "outputs": [
        {
          "internalType": "bool",
          "name": "",
          "type": "bool"
        }
      ],
      "stateMutability": "view",
      "type": "function"
    },
    {
      "inputs": [
        {
          "internalType": "bytes",
          "name": "poolId",
          "type": "bytes"
        }
      ],
      "name": "isPoolOpen",
      "outputs": [
        {
          "internalType": "bool",
          "name": "",
          "type": "bool"
        }
      ],
      "stateMutability": "view",
      "type": "function"
    },
    {
      "inputs": [],
      "name": "isRunning",
      "outputs": [
        {
          "internalType": "bool",
          "name": "",
          "type": "bool"
        }
      ],
      "stateMutability": "view",
      "type": "function"
    },
    {
      "inputs": [
        {
          "components": [
            {
              "internalType": "bytes",
              "name": "poolId",
              "type": "bytes"
            },
            {
              "internalType": "string",
              "name": "avatarUrl",
              "type": "string"
            },
            {
              "internalType": "string",
              "name": "countryCode",
              "type": "string"
            },
            {
              "internalType": "bool",
              "name": "upOrDown",
              "type": "bool"
            },
            {
              "internalType": "string",
              "name": "whiteLabelId",
              "type": "string"
            }
          ],
          "internalType": "struct UpVsDownGameV2.makeTradeStruct",
          "name": "userTrade",
          "type": "tuple"
        }
      ],
      "name": "makeTrade",
      "outputs": [],
      "stateMutability": "payable",
      "type": "function"
    },
    {
      "inputs": [],
      "name": "notRunningReason",
      "outputs": [
        {
          "internalType": "bytes",
          "name": "",
          "type": "bytes"
        }
      ],
      "stateMutability": "view",
      "type": "function"
    },
    {
      "inputs": [],
      "name": "owner",
      "outputs": [
        {
          "internalType": "address",
          "name": "",
          "type": "address"
        }
      ],
      "stateMutability": "view",
      "type": "function"
    },
    {
      "inputs": [
        {
          "internalType": "bytes",
          "name": "",
          "type": "bytes"
        }
      ],
      "name": "pools",
      "outputs": [
        {
          "internalType": "bool",
          "name": "created",
          "type": "bool"
        },
        {
          "internalType": "int32",
          "name": "startPrice",
          "type": "int32"
        },
        {
          "internalType": "int32",
          "name": "endPrice",
          "type": "int32"
        },
        {
          "internalType": "uint256",
          "name": "minBetAmount",
          "type": "uint256"
        },
        {
          "internalType": "uint256",
          "name": "maxBetAmount",
          "type": "uint256"
        },
        {
          "internalType": "uint256",
          "name": "poolBetsLimit",
          "type": "uint256"
        },
        {
          "components": [
            {
              "internalType": "uint256[]",
              "name": "bets",
              "type": "uint256[]"
            },
            {
              "internalType": "address[]",
              "name": "addresses",
              "type": "address[]"
            },
            {
              "internalType": "string[]",
              "name": "avatars",
              "type": "string[]"
            },
            {
              "internalType": "string[]",
              "name": "countries",
              "type": "string[]"
            },
            {
              "internalType": "string[]",
              "name": "whiteLabelIds",
              "type": "string[]"
            },
            {
              "internalType": "uint256",
              "name": "total",
              "type": "uint256"
            },
            {
              "internalType": "uint256",
              "name": "distributedCount",
              "type": "uint256"
            },
            {
              "internalType": "uint256",
              "name": "totalDistributed",
              "type": "uint256"
            }
          ],
          "internalType": "struct UpVsDownGameV2.BetGroup",
          "name": "upBetGroup",
          "type": "tuple"
        },
        {
          "components": [
            {
              "internalType": "uint256[]",
              "name": "bets",
              "type": "uint256[]"
            },
            {
              "internalType": "address[]",
              "name": "addresses",
              "type": "address[]"
            },
            {
              "internalType": "string[]",
              "name": "avatars",
              "type": "string[]"
            },
            {
              "internalType": "string[]",
              "name": "countries",
              "type": "string[]"
            },
            {
              "internalType": "string[]",
              "name": "whiteLabelIds",
              "type": "string[]"
            },
            {
              "internalType": "uint256",
              "name": "total",
              "type": "uint256"
            },
            {
              "internalType": "uint256",
              "name": "distributedCount",
              "type": "uint256"
            },
            {
              "internalType": "uint256",
              "name": "totalDistributed",
              "type": "uint256"
            }
          ],
          "internalType": "struct UpVsDownGameV2.BetGroup",
          "name": "downBetGroup",
          "type": "tuple"
        },
        {
          "internalType": "int64",
          "name": "roundStartTime",
          "type": "int64"
        },
        {
          "internalType": "uint256",
          "name": "tradesStartTimeMS",
          "type": "uint256"
        },
        {
          "internalType": "uint256",
          "name": "tradesEndTimeMS",
          "type": "uint256"
        }
      ],
      "stateMutability": "view",
      "type": "function"
    },
    {
      "inputs": [],
      "name": "renounceOwnership",
      "outputs": [],
      "stateMutability": "nonpayable",
      "type": "function"
    },
    {
      "inputs": [],
      "name": "startGame",
      "outputs": [],
      "stateMutability": "nonpayable",
      "type": "function"
    },
    {
      "inputs": [
        {
          "internalType": "bytes",
          "name": "reason",
          "type": "bytes"
        }
      ],
      "name": "stopGame",
      "outputs": [],
      "stateMutability": "nonpayable",
      "type": "function"
    },
    {
      "inputs": [
        {
          "internalType": "address",
          "name": "newOwner",
          "type": "address"
        }
      ],
      "name": "transferOwnership",
      "outputs": [],
      "stateMutability": "nonpayable",
      "type": "function"
    },
    {
      "inputs": [
        {
          "internalType": "bytes",
          "name": "poolId",
          "type": "bytes"
        },
        {
          "internalType": "int64",
          "name": "timeMS",
          "type": "int64"
        },
        {
          "internalType": "uint256",
          "name": "tradesStartTimeMS",
          "type": "uint256"
        },
        {
          "internalType": "uint256",
          "name": "tradesEndTimeMS",
          "type": "uint256"
        },
        {
          "internalType": "int32",
          "name": "price",
          "type": "int32"
        },
        {
          "internalType": "uint32",
          "name": "batchSize",
          "type": "uint32"
        }
      ],
      "name": "trigger",
      "outputs": [],
      "stateMutability": "nonpayable",
      "type": "function"
    }
  ],
  "bytecode": "60806040526003805433610100026001600160a81b03199091161760051790553480156200002c57600080fd5b5060405162003145380380620031458339810160408190526200004f91620000d0565b6200005a3362000080565b600180546001600160a01b0319166001600160a01b039290921691909117905562000100565b600080546001600160a01b038381166001600160a01b0319831681178455604051919092169283917f8be0079c531659141344cd1fd0a4f28419497f9722a3daafe3b4186f6b6457e09190a35050565b600060208284031215620000e2578081fd5b81516001600160a01b0381168114620000f9578182fd5b9392505050565b61303580620001106000396000f3fe6080604052600436106100ef5760003560e01c80630c2f915e146100f45780631d0d625b146101295780632014e5d11461014b57806330efabd41461016c5780633fafac921461018c57806341275358146101c3578063595dc897146102005780636518a0a914610220578063715018a6146102425780637b0642401461025757806381196ae2146102775780638da5cb5b1461028a578063a001ecdd1461029f578063a7c3324d146102cb578063d4c770cf146102eb578063d65ab5f21461030b578063e470996914610320578063eab79b7d14610340578063f2fde38b14610360578063f68256a814610380575b600080fd5b34801561010057600080fd5b5061011461010f366004612620565b6103a0565b60405190151581526020015b60405180910390f35b34801561013557600080fd5b506101496101443660046125d2565b6103fe565b005b34801561015757600080fd5b5060035461011490600160a81b900460ff1681565b34801561017857600080fd5b50610114610187366004612620565b610458565b34801561019857600080fd5b506101ac6101a73660046127a5565b610491565b6040516101209b9a99989796959493929190612b3a565b3480156101cf57600080fd5b506003546101e89061010090046001600160a01b031681565b6040516001600160a01b039091168152602001610120565b34801561020c57600080fd5b5061014961021b3660046125d2565b610bd3565b34801561022c57600080fd5b50610235610c2a565b6040516101209190612dc0565b34801561024e57600080fd5b50610149610cb8565b34801561026357600080fd5b5061014961027236600461265f565b610cf3565b61014961028536600461284e565b610fb5565b34801561029657600080fd5b506101e86116f2565b3480156102ab57600080fd5b506003546102b99060ff1681565b60405160ff9091168152602001610120565b3480156102d757600080fd5b506101496102e6366004612743565b611701565b3480156102f757600080fd5b50610149610306366004612885565b611b82565b34801561031757600080fd5b50610149611bc7565b34801561032c57600080fd5b5061014961033b3660046126ec565b611c53565b34801561034c57600080fd5b5061014961035b366004612620565b611d2e565b34801561036c57600080fd5b5061014961037b3660046125d2565b611db4565b34801561038c57600080fd5b506001546101e8906001600160a01b031681565b600080600284846040516103b5929190612b2a565b908152604051908190036020018120600c0154906002906103d99087908790612b2a565b908152604051908190036020019020600401546103f69190612eef565b119392505050565b336104076116f2565b6001600160a01b0316146104365760405162461bcd60e51b815260040161042d90612e35565b60405180910390fd5b600180546001600160a01b0319166001600160a01b0392909216919091179055565b60006002838360405161046c929190612b2a565b908152604051908190036020019020546101009004600390810b900b15905092915050565b8051808201602090810180516002808352938301948301949094209390528254600184015492840154600380860154604080516004890180546101209881028301890190935261010082810184815260ff89169b918904870b9a600160281b90990490960b9894959094929391928492849184018282801561053257602002820191906000526020600020905b81548152602001906001019080831161051e575b505050505081526020016001820180548060200260200160405190810160405280929190818152602001828054801561059457602002820191906000526020600020905b81546001600160a01b03168152600190910190602001808311610576575b5050505050815260200160028201805480602002602001604051908101604052809291908181526020016000905b8282101561066e5783829060005260206000200180546105e190612f5d565b80601f016020809104026020016040519081016040528092919081815260200182805461060d90612f5d565b801561065a5780601f1061062f5761010080835404028352916020019161065a565b820191906000526020600020905b81548152906001019060200180831161063d57829003601f168201915b5050505050815260200190600101906105c2565b50505050815260200160038201805480602002602001604051908101604052809291908181526020016000905b828210156107475783829060005260206000200180546106ba90612f5d565b80601f01602080910402602001604051908101604052809291908181526020018280546106e690612f5d565b80156107335780601f1061070857610100808354040283529160200191610733565b820191906000526020600020905b81548152906001019060200180831161071657829003601f168201915b50505050508152602001906001019061069b565b50505050815260200160048201805480602002602001604051908101604052809291908181526020016000905b8282101561082057838290600052602060002001805461079390612f5d565b80601f01602080910402602001604051908101604052809291908181526020018280546107bf90612f5d565b801561080c5780601f106107e15761010080835404028352916020019161080c565b820191906000526020600020905b8154815290600101906020018083116107ef57829003601f168201915b505050505081526020019060010190610774565b50505050815260200160058201548152602001600682015481526020016007820154815250509080600c0160405180610100016040529081600082018054806020026020016040519081016040528092919081815260200182805480156108a657602002820191906000526020600020905b815481526020019060010190808311610892575b505050505081526020016001820180548060200260200160405190810160405280929190818152602001828054801561090857602002820191906000526020600020905b81546001600160a01b031681526001909101906020018083116108ea575b5050505050815260200160028201805480602002602001604051908101604052809291908181526020016000905b828210156109e257838290600052602060002001805461095590612f5d565b80601f016020809104026020016040519081016040528092919081815260200182805461098190612f5d565b80156109ce5780601f106109a3576101008083540402835291602001916109ce565b820191906000526020600020905b8154815290600101906020018083116109b157829003601f168201915b505050505081526020019060010190610936565b50505050815260200160038201805480602002602001604051908101604052809291908181526020016000905b82821015610abb578382906000526020600020018054610a2e90612f5d565b80601f0160208091040260200160405190810160405280929190818152602001828054610a5a90612f5d565b8015610aa75780601f10610a7c57610100808354040283529160200191610aa7565b820191906000526020600020905b815481529060010190602001808311610a8a57829003601f168201915b505050505081526020019060010190610a0f565b50505050815260200160048201805480602002602001604051908101604052809291908181526020016000905b82821015610b94578382906000526020600020018054610b0790612f5d565b80601f0160208091040260200160405190810160405280929190818152602001828054610b3390612f5d565b8015610b805780601f10610b5557610100808354040283529160200191610b80565b820191906000526020600020905b815481529060010190602001808311610b6357829003601f168201915b505050505081526020019060010190610ae8565b505050908252506005820154602082015260068201546040820152600791820154606090910152601483015460158401546016909401549293910b918b565b33610bdc6116f2565b6001600160a01b031614610c025760405162461bcd60e51b815260040161042d90612e35565b600380546001600160a01b0390921661010002610100600160a81b0319909216919091179055565b60048054610c3790612f5d565b80601f0160208091040260200160405190810160405280929190818152602001828054610c6390612f5d565b8015610cb05780601f10610c8557610100808354040283529160200191610cb0565b820191906000526020600020905b815481529060010190602001808311610c9357829003601f168201915b505050505081565b33610cc16116f2565b6001600160a01b031614610ce75760405162461bcd60e51b815260040161042d90612e35565b610cf16000611e54565b565b6001546001600160a01b03163314610d1d5760405162461bcd60e51b815260040161042d90612dd3565b868660028282604051610d31929190612b2a565b9081526040519081900360200190205460ff161515600114610d655760405162461bcd60e51b815260040161042d90612e08565b600060028a8a604051610d79929190612b2a565b90815260200160405180910390209050610d938a8a610458565b15610edf57600354600160a81b900460ff16610e175760405162461bcd60e51b815260206004820152603f60248201527f5468652067616d65206973206e6f742072756e6e696e672c20726f756e64732060448201527f63616e206f6e6c7920626520656e646564206174207468697320706f696e7400606482015260840161042d565b805464ffffffff00191661010063ffffffff600388900b16021781556014810180546001600160401b0319166001600160401b0360078b900b161790556015810187905560168101869055604051610e72908b908b90612b2a565b60405180910390207f977f157300bb4d69d09b3e083fb55a17a0c02f978e5b220c08173c63de9665aa8b8b8b8560000160019054906101000a900460030b866001015487600201548860030154604051610ed29796959493929190612d40565b60405180910390a2610fa9565b8054600160281b9004600390810b900b610f9057805463ffffffff60281b1916600160281b63ffffffff600388900b1602178155604051610f23908b908b90612b2a565b604051908190038120825490917fe097bf610f5827ffcdd36eb07b790e6ee02dd498f911ab45664208cfad9323b091610f77918e918e918e916101008104600390810b92600160281b909204900b90612d08565b60405180910390a2610f8b8a8a868b611701565b610fa9565b60405163d56be5db60e01b815260040160405180910390fd5b50505050505050505050565b610fbf8180612eab565b610fc98282610458565b61101f5760405162461bcd60e51b815260206004820152602160248201527f5468697320706f6f6c20686173206120726f756e6420696e2070726f677265736044820152607360f81b606482015260840161042d565b600354600160a81b900460ff166110725760405162461bcd60e51b81526020600482015260176024820152765468652067616d65206973206e6f742072756e6e696e6760481b604482015260640161042d565b61107c8380612eab565b6002828260405161108e929190612b2a565b9081526040519081900360200190205460ff1615156001146110c25760405162461bcd60e51b815260040161042d90612e08565b600034116111115760405162461bcd60e51b815260206004820152601c60248201527b4e6565647320746f2073656e64204d6174696320746f20747261646560201b604482015260640161042d565b600261111d8680612eab565b60405161112b929190612b2a565b9081526020016040518091039020600101543410156111a35760405162461bcd60e51b815260206004820152602e60248201527f547261646520616d6f756e742073686f756c642062652068696768657220746860448201526d616e20746865206d696e696d756d60901b606482015260840161042d565b60026111af8680612eab565b6040516111bd929190612b2a565b9081526020016040518091039020600201543411156112345760405162461bcd60e51b815260206004820152602d60248201527f547261646520616d6f756e742073686f756c64206265206c6f7765722074686160448201526c6e20746865206d6178696d756d60981b606482015260840161042d565b60026112408680612eab565b60405161124e929190612b2a565b9081526020016040518091039020601601544211156112a25760405162461bcd60e51b815260206004820152601060248201526f526f756e6420697320636c6f73696e6760801b604482015260640161042d565b60026112ae8680612eab565b6040516112bc929190612b2a565b9081526020016040518091039020601501544210156113155760405162461bcd60e51b8152602060048201526015602482015274149bdd5b99081b9bdd081cdd185c9d1959081e595d605a1b604482015260640161042d565b60006113276080870160608801612600565b15611414576001600261133a8880612eab565b604051611348929190612b2a565b9081526020016040518091039020600301546113649190612f46565b60026113708880612eab565b60405161137e929190612b2a565b9081526040519081900360200190206004015411156113af5760405162461bcd60e51b815260040161042d90612e6a565b61140d60026113be8880612eab565b6040516113cc929190612b2a565b9081526020016040518091039020600401348880602001906113ee9190612eab565b6113fb60408c018c612eab565b61140860808e018e612eab565b611ea4565b90506114d9565b600160026114228880612eab565b604051611430929190612b2a565b90815260200160405180910390206003015461144c9190612f46565b60026114588880612eab565b604051611466929190612b2a565b908152604051908190036020019020600c015411156114975760405162461bcd60e51b815260040161042d90612e6a565b6114d660026114a68880612eab565b6040516114b4929190612b2a565b9081526020016040518091039020600c01348880602001906113ee9190612eab565b90505b6115076040518060800160405280606081526020016060815260200160608152602001600060070b81525090565b6115146020880188612eab565b8080601f0160208091040260200160405190810160405280939291908181526020018383808284376000920191909152505050908252506115586040880188612eab565b8080601f016020809104026020016040519081016040528093929190818152602001838380828437600092019190915250505050602082015261159e6080880188612eab565b8080601f016020809104026020016040519081016040528093929190818152602001838380828437600092019190915250505050604082015260026115e38880612eab565b6040516115f1929190612b2a565b90815260405190819003602001902060140154600790810b810b900b60608201523361161d8880612eab565b60405161162b929190612b2a565b6040519081900390207f68f6fc9b4292a4019c38f766d951dada112bf514a9fa2245e113dd0d72f2861561165f8a80612eab565b33348d60600160208101906116749190612600565b61169a57604051806040016040528060048152602001632227aba760e11b8152506116b6565b60405180604001604052806002815260200161055560f41b8152505b8989600001518a602001518b606001518c604001516040516116e19a99989796959493929190612bd4565b60405180910390a350505050505050565b6000546001600160a01b031690565b6001546001600160a01b0316331461172b5760405162461bcd60e51b815260040161042d90612dd3565b83836002828260405161173f929190612b2a565b9081526040519081900360200190205460ff1615156001146117735760405162461bcd60e51b815260040161042d90612e08565b600060028787604051611787929190612b2a565b908152604051908190036020019020600481015490915015806117ac5750600c810154155b1561183357600c810154600090156117c75781600c016117cc565b816004015b60068101549091506117e08989848a611f6c565b81546006830154604051600080516020612fe08339815191529261180c928d928d929187918d90612d84565b60405180910390a181546006830154141561182b5761182b8989612127565b505050611b7a565b8054600c8201906004830190600160281b8104600390810b810b610100909204810b900b121561186857505060048101600c82015b60006118748383612289565b905060008863ffffffff1682604001511161189357816040015161189b565b8863ffffffff165b905060008185600601546118af9190612eef565b60068601549091505b81811015611ae85760006064856020015188600501548960000185815481106118f157634e487b7160e01b600052603260045260246000fd5b906000526020600020015460646119089190612f27565b6119129190612f07565b61191c9190612f27565b6119269190612f07565b90506119a387600101838154811061194e57634e487b7160e01b600052603260045260246000fd5b60009182526020909120015488546001600160a01b039091169089908590811061198857634e487b7160e01b600052603260045260246000fd5b90600052602060002001548361199e9190612eef565b61231d565b8660010182815481106119c657634e487b7160e01b600052603260045260246000fd5b9060005260206000200160009054906101000a90046001600160a01b03166001600160a01b03167ff31160dbe9f89c709f800e64e885259133c3a7a81d5997e727a35a9bc0896dca8f8f8a6001018681548110611a3357634e487b7160e01b600052603260045260246000fd5b6000918252602090912001548b546001600160a01b03909116908c9088908110611a6d57634e487b7160e01b600052603260045260246000fd5b9060005260206000200154868d6004018981548110611a9c57634e487b7160e01b600052603260045260246000fd5b90600052602060002001604051611ab896959493929190612cb8565b60405180910390a2808760070154611ad09190612eef565b60078801555080611ae081612f98565b9150506118b8565b50600080516020612fe08339815191528c8c87600001805490508860060154858e604051611b1b96959493929190612d84565b60405180910390a1600685018190558454811415611b7357600354600786015460208501518551611b699361010090046001600160a01b03169291611b5f91612eef565b61199e9190612f46565b611b738c8c612127565b5050505050505b505050505050565b33611b8b6116f2565b6001600160a01b031614611bb15760405162461bcd60e51b815260040161042d90612e35565b6003805460ff191660ff92909216919091179055565b33611bd06116f2565b6001600160a01b031614611bf65760405162461bcd60e51b815260040161042d90612e35565b6003805460ff60a81b1916600160a81b179055604080516020810191829052600090819052611c27916004916123c1565b506040517f762f260439bb4be3ef6e4dc2786e2e7bd187d3d80b79057d7a424fe98563e33590600090a1565b6001546001600160a01b03163314611c7d5760405162461bcd60e51b815260040161042d90612dd3565b600160028686604051611c91929190612b2a565b908152604051908190036020018120805492151560ff19909316929092179091558390600290611cc49088908890612b2a565b9081526020016040518091039020600101819055508160028686604051611cec929190612b2a565b9081526020016040518091039020600201819055508060028686604051611d14929190612b2a565b908152604051908190036020019020600301555050505050565b33611d376116f2565b6001600160a01b031614611d5d5760405162461bcd60e51b815260040161042d90612e35565b6003805460ff60a81b19169055611d7660048383612445565b507fbbed56c796999ec9481de9169e54d6f193c57a335189c8b82053d80e263fdbd68282604051611da8929190612bb8565b60405180910390a15050565b33611dbd6116f2565b6001600160a01b031614611de35760405162461bcd60e51b815260040161042d90612e35565b6001600160a01b038116611e485760405162461bcd60e51b815260206004820152602660248201527f4f776e61626c653a206e6577206f776e657220697320746865207a65726f206160448201526564647265737360d01b606482015260840161042d565b611e5181611e54565b50565b600080546001600160a01b038381166001600160a01b0319831681178455604051919092169283917f8be0079c531659141344cd1fd0a4f28419497f9722a3daafe3b4186f6b6457e09190a35050565b875460018181018a5560008a815260208082209093018a9055818b01805480840182559082528382200180546001600160a01b0319163317905560028b01805492830181558152918220611efa91018888612445565b5060038901805460018101825560009182526020909120611f1d91018686612445565b5060048901805460018101825560009182526020909120611f4091018484612445565b5087896005016000828254611f559190612eef565b909155505050600588015498975050505050505050565b60068201548254600091611f7f91612f46565b905060008263ffffffff168211611f965781611f9e565b8263ffffffff165b90506000818560060154611fb29190612eef565b60068601549091505b8181101561211657612033866001018281548110611fe957634e487b7160e01b600052603260045260246000fd5b60009182526020909120015487546001600160a01b039091169088908490811061202357634e487b7160e01b600052603260045260246000fd5b906000526020600020015461231d565b7fb9b3cf88e16ddd6b941ffa04b763047af17bafd3cdecef4d26d46f43e64c1205888888600101848154811061207957634e487b7160e01b600052603260045260246000fd5b60009182526020909120015489546001600160a01b03909116908a90869081106120b357634e487b7160e01b600052603260045260246000fd5b90600052602060002001548a60040186815481106120e157634e487b7160e01b600052603260045260246000fd5b906000526020600020016040516120fc959493929190612c70565b60405180910390a18061210e81612f98565b915050611fbb565b506006909401939093555050505050565b60028282604051612139929190612b2a565b908152604051908190036020019020600401600061215782826124b9565b6121656001830160006124b9565b6121736002830160006124d7565b6121816003830160006124d7565b61218f6004830160006124d7565b6005820160009055600682016000905560078201600090555050600282826040516121bb929190612b2a565b908152604051908190036020019020600c0160006121d982826124b9565b6121e76001830160006124b9565b6121f56002830160006124d7565b6122036003830160006124d7565b6122116004830160006124d7565b60058201600090556006820160009055600782016000905550506002828260405161223d929190612b2a565b908152604051908190036020018120805464ffffffff00191690556002906122689084908490612b2a565b908152604051908190036020019020805463ffffffff60281b191690555050565b6122ad60405180606001604052806000815260200160008152602001600081525090565b60058201546003546000916064916122c8919060ff16612f27565b6122d29190612f07565b600685015485549192506000916122e99190612f46565b9050604051806060016040528083815260200183866005015461230c9190612f46565b815260200191909152949350505050565b600080836001600160a01b0316600084604051600060405180830381858888f193505050503d806000811461236e576040519150601f19603f3d011682016040523d82523d6000602084013e612373565b606091505b5091509150816123bb5760405162461bcd60e51b815260206004820152601360248201527221b7bab6323713ba1039b2b7321032ba3432b960691b604482015260640161042d565b50505050565b8280546123cd90612f5d565b90600052602060002090601f0160209004810192826123ef5760008555612435565b82601f1061240857805160ff1916838001178555612435565b82800160010185558215612435579182015b8281111561243557825182559160200191906001019061241a565b506124419291506124f5565b5090565b82805461245190612f5d565b90600052602060002090601f0160209004810192826124735760008555612435565b82601f1061248c5782800160ff19823516178555612435565b82800160010185558215612435579182015b8281111561243557823582559160200191906001019061249e565b5080546000825590600052602060002090810190611e5191906124f5565b5080546000825590600052602060002090810190611e51919061250a565b5b8082111561244157600081556001016124f6565b8082111561244157600061251e8282612527565b5060010161250a565b50805461253390612f5d565b6000825580601f10612543575050565b601f016020900490600052602060002090810190611e5191906124f5565b60008083601f840112612572578081fd5b5081356001600160401b03811115612588578182fd5b6020830191508360208285010111156125a057600080fd5b9250929050565b8035600781900b81146125b957600080fd5b919050565b803563ffffffff811681146125b957600080fd5b6000602082840312156125e3578081fd5b81356001600160a01b03811681146125f9578182fd5b9392505050565b600060208284031215612611578081fd5b813580151581146125f9578182fd5b60008060208385031215612632578081fd5b82356001600160401b03811115612647578182fd5b61265385828601612561565b90969095509350505050565b600080600080600080600060c0888a031215612679578283fd5b87356001600160401b0381111561268e578384fd5b61269a8a828b01612561565b90985096506126ad9050602089016125a7565b9450604088013593506060880135925060808801358060030b81146126d0578283fd5b91506126de60a089016125be565b905092959891949750929550565b600080600080600060808688031215612703578081fd5b85356001600160401b03811115612718578182fd5b61272488828901612561565b9099909850602088013597604081013597506060013595509350505050565b60008060008060608587031215612758578384fd5b84356001600160401b0381111561276d578485fd5b61277987828801612561565b909550935061278c9050602086016125be565b915061279a604086016125a7565b905092959194509250565b6000602082840312156127b6578081fd5b81356001600160401b03808211156127cc578283fd5b818401915084601f8301126127df578283fd5b8135818111156127f1576127f1612fc9565b604051601f8201601f19908116603f0116810190838211818310171561281957612819612fc9565b81604052828152876020848701011115612831578586fd5b826020860160208301379182016020019490945295945050505050565b60006020828403121561285f578081fd5b81356001600160401b03811115612874578182fd5b820160a081850312156125f9578182fd5b600060208284031215612896578081fd5b813560ff811681146125f9578182fd5b6000815180845260208085019450808401835b838110156128de5781516001600160a01b0316875295820195908201906001016128b9565b509495945050505050565b600082825180855260208086019550808260051b840101818601855b8481101561293357601f19868403018952612921838351612998565b98840198925090830190600101612905565b5090979650505050505050565b6000815180845260208085019450808401835b838110156128de57815187529582019590820190600101612953565b81835281816020850137506000828201602090810191909152601f909101601f19169091010190565b60008151808452815b818110156129bd576020818501810151868301820152016129a1565b818111156129ce5782602083870101525b50601f01601f19169290920160200192915050565b8054600090600181811c90808316806129fd57607f831692505b6020808410821415612a1d57634e487b7160e01b86526022600452602486fd5b83885260208801828015612a385760018114612a4957612a74565b60ff19871682528282019750612a74565b60008981526020902060005b87811015612a6e57815484820152908601908401612a55565b83019850505b5050505050505092915050565b60006101008251818552612a9782860182612940565b91505060208301518482036020860152612ab182826128a6565b91505060408301518482036040860152612acb82826128e9565b91505060608301518482036060860152612ae582826128e9565b91505060808301518482036080860152612aff82826128e9565b91505060a083015160a085015260c083015160c085015260e083015160e08501528091505092915050565b8183823760009101908152919050565b60006101608d151583528c60030b60208401528b60030b60408401528a60608401528960808401528860a08401528060c0840152612b7a81840189612a81565b905082810360e0840152612b8e8188612a81565b60079690960b61010084015250506101208101929092526101409091015298975050505050505050565b602081526000612bcc60208301848661296f565b949350505050565b6000610120808352612be98184018d8f61296f565b6001600160a01b038c166020850152604084018b905283810360608501529050612c13818a612998565b905087608084015282810360a0840152612c2d8188612998565b905082810360c0840152612c418187612998565b90508460070b60e0840152828103610100840152612c5f8185612998565b9d9c50505050505050505050505050565b608081526000612c8460808301878961296f565b6001600160a01b0386166020840152604083018590528281036060840152612cac81856129e3565b98975050505050505050565b60a081526000612ccc60a08301888a61296f565b6001600160a01b038716602084015260408301869052606083018590528281036080840152612cfb81856129e3565b9998505050505050505050565b608081526000612d1c60808301878961296f565b60079590950b602083015250600392830b6040820152910b60609091015292915050565b60c081526000612d5460c08301898b61296f565b60079790970b60208301525060039490940b60408501526060840192909252608083015260a09091015292915050565b60a081526000612d9860a08301888a61296f565b90508560208301528460408301528360608301528260070b6080830152979650505050505050565b6020815260006125f96020830184612998565b6020808252818101527f4f6e6c792067616d6520636f6e74726f6c6c65722063616e20646f2074686973604082015260600190565b602080825260139082015272141bdbdb08191bd95cc81b9bdd08195e1a5cdd606a1b604082015260600190565b6020808252818101527f4f776e61626c653a2063616c6c6572206973206e6f7420746865206f776e6572604082015260600190565b60208082526021908201527f506f6f6c2069732066756c6c2c207761697420666f72206e65787420726f756e6040820152601960fa1b606082015260800190565b6000808335601e19843603018112612ec1578283fd5b8301803591506001600160401b03821115612eda578283fd5b6020019150368190038213156125a057600080fd5b60008219821115612f0257612f02612fb3565b500190565b600082612f2257634e487b7160e01b81526012600452602481fd5b500490565b6000816000190483118215151615612f4157612f41612fb3565b500290565b600082821015612f5857612f58612fb3565b500390565b600181811c90821680612f7157607f821691505b60208210811415612f9257634e487b7160e01b600052602260045260246000fd5b50919050565b6000600019821415612fac57612fac612fb3565b5060010190565b634e487b7160e01b600052601160045260246000fd5b634e487b7160e01b600052604160045260246000fdfed86802201c3bf5d79ef71027c49cdfdee99fa298848917618ba148d098f15f74a2646970667358221220e473181d101708acb7f36997f0a1e0413d4615ca85f97268e2285a99b360b13964736f6c63430008040033",
  "bytecodeSha1": "04159b0888e944398a38d05bbc6b77c156d0ca80",
  "compiler": {
    "evm_version": "istanbul",
    "optimizer": {
      "enabled": true,
      "runs": 1
    },
    "version": "0.8.4+commit.c7e474f2"
  },
  "contractName": "UpVsDownGameV2",
  "language": "Solidity",
  "natspec": {
    "kind": "dev",
    "methods": {
      "owner()": {
        "details": "Returns the address of the current owner."
      },
      "renounceOwnership()": {
        "details": "Leaves the contract without owner. It will not be possible to call `onlyOwner` functions anymore. Can only be called by the current owner. NOTE: Renouncing ownership will leave the contract without an owner, thereby removing any functionality that is only available to the owner."
      },
      "transferOwnership(address)": {
        "details": "Transfers ownership of the contract to a new account (`newOwner`). Can only be called by the current owner."
      }
    },
    "version": 1
  },
  "opcodes": "PUSH1 0x80 PUSH1 0x40 MSTORE PUSH1 0x4 CALLDATASIZE LT PUSH2 0xEF JUMPI PUSH1 0x0 CALLDATALOAD PUSH1 0xE0 SHR DUP1 PUSH4 0xC2F915E EQ PUSH2 0xF4 JUMPI DUP1 PUSH4 0x1D0D625B EQ PUSH2 0x129 JUMPI DUP1 PUSH4 0x2014E5D1 EQ PUSH2 0x14B JUMPI DUP1 PUSH4 0x30EFABD4 EQ PUSH2 0x16C JUMPI DUP1 PUSH4 0x3FAFAC92 EQ PUSH2 0x18C JUMPI DUP1 PUSH4 0x41275358 EQ PUSH2 0x1C3 JUMPI DUP1 PUSH4 0x595DC897 EQ PUSH2 0x200 JUMPI DUP1 PUSH4 0x6518A0A9 EQ PUSH2 0x220 JUMPI DUP1 PUSH4 0x715018A6 EQ PUSH2 0x242 JUMPI DUP1 PUSH4 0x7B064240 EQ PUSH2 0x257 JUMPI DUP1 PUSH4 0x81196AE2 EQ PUSH2 0x277 JUMPI DUP1 PUSH4 0x8DA5CB5B EQ PUSH2 0x28A JUMPI DUP1 PUSH4 0xA001ECDD EQ PUSH2 0x29F JUMPI DUP1 PUSH4 0xA7C3324D EQ PUSH2 0x2CB JUMPI DUP1 PUSH4 0xD4C770CF EQ PUSH2 0x2EB JUMPI DUP1 PUSH4 0xD65AB5F2 EQ PUSH2 0x30B JUMPI DUP1 PUSH4 0xE4709969 EQ PUSH2 0x320 JUMPI DUP1 PUSH4 0xEAB79B7D EQ PUSH2 0x340 JUMPI DUP1 PUSH4 0xF2FDE38B EQ PUSH2 0x360 JUMPI DUP1 PUSH4 0xF68256A8 EQ PUSH2 0x380 JUMPI JUMPDEST PUSH1 0x0 DUP1 REVERT JUMPDEST CALLVALUE DUP1 ISZERO PUSH2 0x100 JUMPI PUSH1 0x0 DUP1 REVERT JUMPDEST POP PUSH2 0x114 PUSH2 0x10F CALLDATASIZE PUSH1 0x4 PUSH2 0x2620 JUMP JUMPDEST PUSH2 0x3A0 JUMP JUMPDEST PUSH1 0x40 MLOAD SWAP1 ISZERO ISZERO DUP2 MSTORE PUSH1 0x20 ADD JUMPDEST PUSH1 0x40 MLOAD DUP1 SWAP2 SUB SWAP1 RETURN JUMPDEST CALLVALUE DUP1 ISZERO PUSH2 0x135 JUMPI PUSH1 0x0 DUP1 REVERT JUMPDEST POP PUSH2 0x149 PUSH2 0x144 CALLDATASIZE PUSH1 0x4 PUSH2 0x25D2 JUMP JUMPDEST PUSH2 0x3FE JUMP JUMPDEST STOP JUMPDEST CALLVALUE DUP1 ISZERO PUSH2 0x157 JUMPI PUSH1 0x0 DUP1 REVERT JUMPDEST POP PUSH1 0x3 SLOAD PUSH2 0x114 SWAP1 PUSH1 0x1 PUSH1 0xA8 SHL SWAP1 DIV PUSH1 0xFF AND DUP2 JUMP JUMPDEST CALLVALUE DUP1 ISZERO PUSH2 0x178 JUMPI PUSH1 0x0 DUP1 REVERT JUMPDEST POP PUSH2 0x114 PUSH2 0x187 CALLDATASIZE PUSH1 0x4 PUSH2 0x2620 JUMP JUMPDEST PUSH2 0x458 JUMP JUMPDEST CALLVALUE DUP1 ISZERO PUSH2 0x198 JUMPI PUSH1 0x0 DUP1 REVERT JUMPDEST POP PUSH2 0x1AC PUSH2 0x1A7 CALLDATASIZE PUSH1 0x4 PUSH2 0x27A5 JUMP JUMPDEST PUSH2 0x491 JUMP JUMPDEST PUSH1 0x40 MLOAD PUSH2 0x120 SWAP12 SWAP11 SWAP10 SWAP9 SWAP8 SWAP7 SWAP6 SWAP5 SWAP4 SWAP3 SWAP2 SWAP1 PUSH2 0x2B3A JUMP JUMPDEST CALLVALUE DUP1 ISZERO PUSH2 0x1CF JUMPI PUSH1 0x0 DUP1 REVERT JUMPDEST POP PUSH1 0x3 SLOAD PUSH2 0x1E8 SWAP1 PUSH2 0x100 SWAP1 DIV PUSH1 0x1 PUSH1 0x1 PUSH1 0xA0 SHL SUB AND DUP2 JUMP JUMPDEST PUSH1 0x40 MLOAD PUSH1 0x1 PUSH1 0x1 PUSH1 0xA0 SHL SUB SWAP1 SWAP2 AND DUP2 MSTORE PUSH1 0x20 ADD PUSH2 0x120 JUMP JUMPDEST CALLVALUE DUP1 ISZERO PUSH2 0x20C JUMPI PUSH1 0x0 DUP1 REVERT JUMPDEST POP PUSH2 0x149 PUSH2 0x21B CALLDATASIZE PUSH1 0x4 PUSH2 0x25D2 JUMP JUMPDEST PUSH2 0xBD3 JUMP JUMPDEST CALLVALUE DUP1 ISZERO PUSH2 0x22C JUMPI PUSH1 0x0 DUP1 REVERT JUMPDEST POP PUSH2 0x235 PUSH2 0xC2A JUMP JUMPDEST PUSH1 0x40 MLOAD PUSH2 0x120 SWAP2 SWAP1 PUSH2 0x2DC0 JUMP JUMPDEST CALLVALUE DUP1 ISZERO PUSH2 0x24E JUMPI PUSH1 0x0 DUP1 REVERT JUMPDEST POP PUSH2 0x149 PUSH2 0xCB8 JUMP JUMPDEST CALLVALUE DUP1 ISZERO PUSH2 0x263 JUMPI PUSH1 0x0 DUP1 REVERT JUMPDEST POP PUSH2 0x149 PUSH2 0x272 CALLDATASIZE PUSH1 0x4 PUSH2 0x265F JUMP JUMPDEST PUSH2 0xCF3 JUMP JUMPDEST PUSH2 0x149 PUSH2 0x285 CALLDATASIZE PUSH1 0x4 PUSH2 0x284E JUMP JUMPDEST PUSH2 0xFB5 JUMP JUMPDEST CALLVALUE DUP1 ISZERO PUSH2 0x296 JUMPI PUSH1 0x0 DUP1 REVERT JUMPDEST POP PUSH2 0x1E8 PUSH2 0x16F2 JUMP JUMPDEST CALLVALUE DUP1 ISZERO PUSH2 0x2AB JUMPI PUSH1 0x0 DUP1 REVERT JUMPDEST POP PUSH1 0x3 SLOAD PUSH2 0x2B9 SWAP1 PUSH1 0xFF AND DUP2 JUMP JUMPDEST PUSH1 0x40 MLOAD PUSH1 0xFF SWAP1 SWAP2 AND DUP2 MSTORE PUSH1 0x20 ADD PUSH2 0x120 JUMP JUMPDEST CALLVALUE DUP1 ISZERO PUSH2 0x2D7 JUMPI PUSH1 0x0 DUP1 REVERT JUMPDEST POP PUSH2 0x149 PUSH2 0x2E6 CALLDATASIZE PUSH1 0x4 PUSH2 0x2743 JUMP JUMPDEST PUSH2 0x1701 JUMP JUMPDEST CALLVALUE DUP1 ISZERO PUSH2 0x2F7 JUMPI PUSH1 0x0 DUP1 REVERT JUMPDEST POP PUSH2 0x149 PUSH2 0x306 CALLDATASIZE PUSH1 0x4 PUSH2 0x2885 JUMP JUMPDEST PUSH2 0x1B82 JUMP JUMPDEST CALLVALUE DUP1 ISZERO PUSH2 0x317 JUMPI PUSH1 0x0 DUP1 REVERT JUMPDEST POP PUSH2 0x149 PUSH2 0x1BC7 JUMP JUMPDEST CALLVALUE DUP1 ISZERO PUSH2 0x32C JUMPI PUSH1 0x0 DUP1 REVERT JUMPDEST POP PUSH2 0x149 PUSH2 0x33B CALLDATASIZE PUSH1 0x4 PUSH2 0x26EC JUMP JUMPDEST PUSH2 0x1C53 JUMP JUMPDEST CALLVALUE DUP1 ISZERO PUSH2 0x34C JUMPI PUSH1 0x0 DUP1 REVERT JUMPDEST POP PUSH2 0x149 PUSH2 0x35B CALLDATASIZE PUSH1 0x4 PUSH2 0x2620 JUMP JUMPDEST PUSH2 0x1D2E JUMP JUMPDEST CALLVALUE DUP1 ISZERO PUSH2 0x36C JUMPI PUSH1 0x0 DUP1 REVERT JUMPDEST POP PUSH2 0x149 PUSH2 0x37B CALLDATASIZE PUSH1 0x4 PUSH2 0x25D2 JUMP JUMPDEST PUSH2 0x1DB4 JUMP JUMPDEST CALLVALUE DUP1 ISZERO PUSH2 0x38C JUMPI PUSH1 0x0 DUP1 REVERT JUMPDEST POP PUSH1 0x1 SLOAD PUSH2 0x1E8 SWAP1 PUSH1 0x1 PUSH1 0x1 PUSH1 0xA0 SHL SUB AND DUP2 JUMP JUMPDEST PUSH1 0x0 DUP1 PUSH1 0x2 DUP5 DUP5 PUSH1 0x40 MLOAD PUSH2 0x3B5 SWAP3 SWAP2 SWAP1 PUSH2 0x2B2A JUMP JUMPDEST SWAP1 DUP2 MSTORE PUSH1 0x40 MLOAD SWAP1 DUP2 SWAP1 SUB PUSH1 0x20 ADD DUP2 KECCAK256 PUSH1 0xC ADD SLOAD SWAP1 PUSH1 0x2 SWAP1 PUSH2 0x3D9 SWAP1 DUP8 SWAP1 DUP8 SWAP1 PUSH2 0x2B2A JUMP JUMPDEST SWAP1 DUP2 MSTORE PUSH1 0x40 MLOAD SWAP1 DUP2 SWAP1 SUB PUSH1 0x20 ADD SWAP1 KECCAK256 PUSH1 0x4 ADD SLOAD PUSH2 0x3F6 SWAP2 SWAP1 PUSH2 0x2EEF JUMP JUMPDEST GT SWAP4 SWAP3 POP POP POP JUMP JUMPDEST CALLER PUSH2 0x407 PUSH2 0x16F2 JUMP JUMPDEST PUSH1 0x1 PUSH1 0x1 PUSH1 0xA0 SHL SUB AND EQ PUSH2 0x436 JUMPI PUSH1 0x40 MLOAD PUSH3 0x461BCD PUSH1 0xE5 SHL DUP2 MSTORE PUSH1 0x4 ADD PUSH2 0x42D SWAP1 PUSH2 0x2E35 JUMP JUMPDEST PUSH1 0x40 MLOAD DUP1 SWAP2 SUB SWAP1 REVERT JUMPDEST PUSH1 0x1 DUP1 SLOAD PUSH1 0x1 PUSH1 0x1 PUSH1 0xA0 SHL SUB NOT AND PUSH1 0x1 PUSH1 0x1 PUSH1 0xA0 SHL SUB SWAP3 SWAP1 SWAP3 AND SWAP2 SWAP1 SWAP2 OR SWAP1 SSTORE JUMP JUMPDEST PUSH1 0x0 PUSH1 0x2 DUP4 DUP4 PUSH1 0x40 MLOAD PUSH2 0x46C SWAP3 SWAP2 SWAP1 PUSH2 0x2B2A JUMP JUMPDEST SWAP1 DUP2 MSTORE PUSH1 0x40 MLOAD SWAP1 DUP2 SWAP1 SUB PUSH1 0x20 ADD SWAP1 KECCAK256 SLOAD PUSH2 0x100 SWAP1 DIV PUSH1 0x3 SWAP1 DUP2 SIGNEXTEND SWAP1 SIGNEXTEND ISZERO SWAP1 POP SWAP3 SWAP2 POP POP JUMP JUMPDEST DUP1 MLOAD DUP1 DUP3 ADD PUSH1 0x20 SWAP1 DUP2 ADD DUP1 MLOAD PUSH1 0x2 DUP1 DUP4 MSTORE SWAP4 DUP4 ADD SWAP5 DUP4 ADD SWAP5 SWAP1 SWAP5 KECCAK256 SWAP4 SWAP1 MSTORE DUP3 SLOAD PUSH1 0x1 DUP5 ADD SLOAD SWAP3 DUP5 ADD SLOAD PUSH1 0x3 DUP1 DUP7 ADD SLOAD PUSH1 0x40 DUP1 MLOAD PUSH1 0x4 DUP10 ADD DUP1 SLOAD PUSH2 0x120 SWAP9 DUP2 MUL DUP4 ADD DUP10 ADD SWAP1 SWAP4 MSTORE PUSH2 0x100 DUP3 DUP2 ADD DUP5 DUP2 MSTORE PUSH1 0xFF DUP10 AND SWAP12 SWAP2 DUP10 DIV DUP8 SIGNEXTEND SWAP11 PUSH1 0x1 PUSH1 0x28 SHL SWAP1 SWAP10 DIV SWAP1 SWAP7 SIGNEXTEND SWAP9 SWAP5 SWAP6 SWAP1 SWAP5 SWAP3 SWAP4 SWAP2 SWAP3 DUP5 SWAP3 DUP5 SWAP2 DUP5 ADD DUP3 DUP3 DUP1 ISZERO PUSH2 0x532 JUMPI PUSH1 0x20 MUL DUP3 ADD SWAP2 SWAP1 PUSH1 0x0 MSTORE PUSH1 0x20 PUSH1 0x0 KECCAK256 SWAP1 JUMPDEST DUP2 SLOAD DUP2 MSTORE PUSH1 0x20 ADD SWAP1 PUSH1 0x1 ADD SWAP1 DUP1 DUP4 GT PUSH2 0x51E JUMPI JUMPDEST POP POP POP POP POP DUP2 MSTORE PUSH1 0x20 ADD PUSH1 0x1 DUP3 ADD DUP1 SLOAD DUP1 PUSH1 0x20 MUL PUSH1 0x20 ADD PUSH1 0x40 MLOAD SWAP1 DUP2 ADD PUSH1 0x40 MSTORE DUP1 SWAP3 SWAP2 SWAP1 DUP2 DUP2 MSTORE PUSH1 0x20 ADD DUP3 DUP1 SLOAD DUP1 ISZERO PUSH2 0x594 JUMPI PUSH1 0x20 MUL DUP3 ADD SWAP2 SWAP1 PUSH1 0x0 MSTORE PUSH1 0x20 PUSH1 0x0 KECCAK256 SWAP1 JUMPDEST DUP2 SLOAD PUSH1 0x1 PUSH1 0x1 PUSH1 0xA0 SHL SUB AND DUP2 MSTORE PUSH1 0x1 SWAP1 SWAP2 ADD SWAP1 PUSH1 0x20 ADD DUP1 DUP4 GT PUSH2 0x576 JUMPI JUMPDEST POP POP POP POP POP DUP2 MSTORE PUSH1 0x20 ADD PUSH1 0x2 DUP3 ADD DUP1 SLOAD DUP1 PUSH1 0x20 MUL PUSH1 0x20 ADD PUSH1 0x40 MLOAD SWAP1 DUP2 ADD PUSH1 0x40 MSTORE DUP1 SWAP3 SWAP2 SWAP1 DUP2 DUP2 MSTORE PUSH1 0x20 ADD PUSH1 0x0 SWAP1 JUMPDEST DUP3 DUP3 LT ISZERO PUSH2 0x66E JUMPI DUP4 DUP3 SWAP1 PUSH1 0x0 MSTORE PUSH1 0x20 PUSH1 0x0 KECCAK256 ADD DUP1 SLOAD PUSH2 0x5E1 SWAP1 PUSH2 0x2F5D JUMP JUMPDEST DUP1 PUSH1 0x1F ADD PUSH1 0x20 DUP1 SWAP2 DIV MUL PUSH1 0x20 ADD PUSH1 0x40 MLOAD SWAP1 DUP2 ADD PUSH1 0x40 MSTORE DUP1 SWAP3 SWAP2 SWAP1 DUP2 DUP2 MSTORE PUSH1 0x20 ADD DUP3 DUP1 SLOAD PUSH2 0x60D SWAP1 PUSH2 0x2F5D JUMP JUMPDEST DUP1 ISZERO PUSH2 0x65A JUMPI DUP1 PUSH1 0x1F LT PUSH2 0x62F JUMPI PUSH2 0x100 DUP1 DUP4 SLOAD DIV MUL DUP4 MSTORE SWAP2 PUSH1 0x20 ADD SWAP2 PUSH2 0x65A JUMP JUMPDEST DUP3 ADD SWAP2 SWAP1 PUSH1 0x0 MSTORE PUSH1 0x20 PUSH1 0x0 KECCAK256 SWAP1 JUMPDEST DUP2 SLOAD DUP2 MSTORE SWAP1 PUSH1 0x1 ADD SWAP1 PUSH1 0x20 ADD DUP1 DUP4 GT PUSH2 0x63D JUMPI DUP3 SWAP1 SUB PUSH1 0x1F AND DUP3 ADD SWAP2 JUMPDEST POP POP POP POP POP DUP2 MSTORE PUSH1 0x20 ADD SWAP1 PUSH1 0x1 ADD SWAP1 PUSH2 0x5C2 JUMP JUMPDEST POP POP POP POP DUP2 MSTORE PUSH1 0x20 ADD PUSH1 0x3 DUP3 ADD DUP1 SLOAD DUP1 PUSH1 0x20 MUL PUSH1 0x20 ADD PUSH1 0x40 MLOAD SWAP1 DUP2 ADD PUSH1 0x40 MSTORE DUP1 SWAP3 SWAP2 SWAP1 DUP2 DUP2 MSTORE PUSH1 0x20 ADD PUSH1 0x0 SWAP1 JUMPDEST DUP3 DUP3 LT ISZERO PUSH2 0x747 JUMPI DUP4 DUP3 SWAP1 PUSH1 0x0 MSTORE PUSH1 0x20 PUSH1 0x0 KECCAK256 ADD DUP1 SLOAD PUSH2 0x6BA SWAP1 PUSH2 0x2F5D JUMP JUMPDEST DUP1 PUSH1 0x1F ADD PUSH1 0x20 DUP1 SWAP2 DIV MUL PUSH1 0x20 ADD PUSH1 0x40 MLOAD SWAP1 DUP2 ADD PUSH1 0x40 MSTORE DUP1 SWAP3 SWAP2 SWAP1 DUP2 DUP2 MSTORE PUSH1 0x20 ADD DUP3 DUP1 SLOAD PUSH2 0x6E6 SWAP1 PUSH2 0x2F5D JUMP JUMPDEST DUP1 ISZERO PUSH2 0x733 JUMPI DUP1 PUSH1 0x1F LT PUSH2 0x708 JUMPI PUSH2 0x100 DUP1 DUP4 SLOAD DIV MUL DUP4 MSTORE SWAP2 PUSH1 0x20 ADD SWAP2 PUSH2 0x733 JUMP JUMPDEST DUP3 ADD SWAP2 SWAP1 PUSH1 0x0 MSTORE PUSH1 0x20 PUSH1 0x0 KECCAK256 SWAP1 JUMPDEST DUP2 SLOAD DUP2 MSTORE SWAP1 PUSH1 0x1 ADD SWAP1 PUSH1 0x20 ADD DUP1 DUP4 GT PUSH2 0x716 JUMPI DUP3 SWAP1 SUB PUSH1 0x1F AND DUP3 ADD SWAP2 JUMPDEST POP POP POP POP POP DUP2 MSTORE PUSH1 0x20 ADD SWAP1 PUSH1 0x1 ADD SWAP1 PUSH2 0x69B JUMP JUMPDEST POP POP POP POP DUP2 MSTORE PUSH1 0x20 ADD PUSH1 0x4 DUP3 ADD DUP1 SLOAD DUP1 PUSH1 0x20 MUL PUSH1 0x20 ADD PUSH1 0x40 MLOAD SWAP1 DUP2 ADD PUSH1 0x40 MSTORE DUP1 SWAP3 SWAP2 SWAP1 DUP2 DUP2 MSTORE PUSH1 0x20 ADD PUSH1 0x0 SWAP1 JUMPDEST DUP3 DUP3 LT ISZERO PUSH2 0x820 JUMPI DUP4 DUP3 SWAP1 PUSH1 0x0 MSTORE PUSH1 0x20 PUSH1 0x0 KECCAK256 ADD DUP1 SLOAD PUSH2 0x793 SWAP1 PUSH2 0x2F5D JUMP JUMPDEST DUP1 PUSH1 0x1F ADD PUSH1 0x20 DUP1 SWAP2 DIV MUL PUSH1 0x20 ADD PUSH1 0x40 MLOAD SWAP1 DUP2 ADD PUSH1 0x40 MSTORE DUP1 SWAP3 SWAP2 SWAP1 DUP2 DUP2 MSTORE PUSH1 0x20 ADD DUP3 DUP1 SLOAD PUSH2 0x7BF SWAP1 PUSH2 0x2F5D JUMP JUMPDEST DUP1 ISZERO PUSH2 0x80C JUMPI DUP1 PUSH1 0x1F LT PUSH2 0x7E1 JUMPI PUSH2 0x100 DUP1 DUP4 SLOAD DIV MUL DUP4 MSTORE SWAP2 PUSH1 0x20 ADD SWAP2 PUSH2 0x80C JUMP JUMPDEST DUP3 ADD SWAP2 SWAP1 PUSH1 0x0 MSTORE PUSH1 0x20 PUSH1 0x0 KECCAK256 SWAP1 JUMPDEST DUP2 SLOAD DUP2 MSTORE SWAP1 PUSH1 0x1 ADD SWAP1 PUSH1 0x20 ADD DUP1 DUP4 GT PUSH2 0x7EF JUMPI DUP3 SWAP1 SUB PUSH1 0x1F AND DUP3 ADD SWAP2 JUMPDEST POP POP POP POP POP DUP2 MSTORE PUSH1 0x20 ADD SWAP1 PUSH1 0x1 ADD SWAP1 PUSH2 0x774 JUMP JUMPDEST POP POP POP POP DUP2 MSTORE PUSH1 0x20 ADD PUSH1 0x5 DUP3 ADD SLOAD DUP2 MSTORE PUSH1 0x20 ADD PUSH1 0x6 DUP3 ADD SLOAD DUP2 MSTORE PUSH1 0x20 ADD PUSH1 0x7 DUP3 ADD SLOAD DUP2 MSTORE POP POP SWAP1 DUP1 PUSH1 0xC ADD PUSH1 0x40 MLOAD DUP1 PUSH2 0x100 ADD PUSH1 0x40 MSTORE SWAP1 DUP2 PUSH1 0x0 DUP3 ADD DUP1 SLOAD DUP1 PUSH1 0x20 MUL PUSH1 0x20 ADD PUSH1 0x40 MLOAD SWAP1 DUP2 ADD PUSH1 0x40 MSTORE DUP1 SWAP3 SWAP2 SWAP1 DUP2 DUP2 MSTORE PUSH1 0x20 ADD DUP3 DUP1 SLOAD DUP1 ISZERO PUSH2 0x8A6 JUMPI PUSH1 0x20 MUL DUP3 ADD SWAP2 SWAP1 PUSH1 0x0 MSTORE PUSH1 0x20 PUSH1 0x0 KECCAK256 SWAP1 JUMPDEST DUP2 SLOAD DUP2 MSTORE PUSH1 0x20 ADD SWAP1 PUSH1 0x1 ADD SWAP1 DUP1 DUP4 GT PUSH2 0x892 JUMPI JUMPDEST POP POP POP POP POP DUP2 MSTORE PUSH1 0x20 ADD PUSH1 0x1 DUP3 ADD DUP1 SLOAD DUP1 PUSH1 0x20 MUL PUSH1 0x20 ADD PUSH1 0x40 MLOAD SWAP1 DUP2 ADD PUSH1 0x40 MSTORE DUP1 SWAP3 SWAP2 SWAP1 DUP2 DUP2 MSTORE PUSH1 0x20 ADD DUP3 DUP1 SLOAD DUP1 ISZERO PUSH2 0x908 JUMPI PUSH1 0x20 MUL DUP3 ADD SWAP2 SWAP1 PUSH1 0x0 MSTORE PUSH1 0x20 PUSH1 0x0 KECCAK256 SWAP1 JUMPDEST DUP2 SLOAD PUSH1 0x1 PUSH1 0x1 PUSH1 0xA0 SHL SUB AND DUP2 MSTORE PUSH1 0x1 SWAP1 SWAP2 ADD SWAP1 PUSH1 0x20 ADD DUP1 DUP4 GT PUSH2 0x8EA JUMPI JUMPDEST POP POP POP POP POP DUP2 MSTORE PUSH1 0x20 ADD PUSH1 0x2 DUP3 ADD DUP1 SLOAD DUP1 PUSH1 0x20 MUL PUSH1 0x20 ADD PUSH1 0x40 MLOAD SWAP1 DUP2 ADD PUSH1 0x40 MSTORE DUP1 SWAP3 SWAP2 SWAP1 DUP2 DUP2 MSTORE PUSH1 0x20 ADD PUSH1 0x0 SWAP1 JUMPDEST DUP3 DUP3 LT ISZERO PUSH2 0x9E2 JUMPI DUP4 DUP3 SWAP1 PUSH1 0x0 MSTORE PUSH1 0x20 PUSH1 0x0 KECCAK256 ADD DUP1 SLOAD PUSH2 0x955 SWAP1 PUSH2 0x2F5D JUMP JUMPDEST DUP1 PUSH1 0x1F ADD PUSH1 0x20 DUP1 SWAP2 DIV MUL PUSH1 0x20 ADD PUSH1 0x40 MLOAD SWAP1 DUP2 ADD PUSH1 0x40 MSTORE DUP1 SWAP3 SWAP2 SWAP1 DUP2 DUP2 MSTORE PUSH1 0x20 ADD DUP3 DUP1 SLOAD PUSH2 0x981 SWAP1 PUSH2 0x2F5D JUMP JUMPDEST DUP1 ISZERO PUSH2 0x9CE JUMPI DUP1 PUSH1 0x1F LT PUSH2 0x9A3 JUMPI PUSH2 0x100 DUP1 DUP4 SLOAD DIV MUL DUP4 MSTORE SWAP2 PUSH1 0x20 ADD SWAP2 PUSH2 0x9CE JUMP JUMPDEST DUP3 ADD SWAP2 SWAP1 PUSH1 0x0 MSTORE PUSH1 0x20 PUSH1 0x0 KECCAK256 SWAP1 JUMPDEST DUP2 SLOAD DUP2 MSTORE SWAP1 PUSH1 0x1 ADD SWAP1 PUSH1 0x20 ADD DUP1 DUP4 GT PUSH2 0x9B1 JUMPI DUP3 SWAP1 SUB PUSH1 0x1F AND DUP3 ADD SWAP2 JUMPDEST POP POP POP POP POP DUP2 MSTORE PUSH1 0x20 ADD SWAP1 PUSH1 0x1 ADD SWAP1 PUSH2 0x936 JUMP JUMPDEST POP POP POP POP DUP2 MSTORE PUSH1 0x20 ADD PUSH1 0x3 DUP3 ADD DUP1 SLOAD DUP1 PUSH1 0x20 MUL PUSH1 0x20 ADD PUSH1 0x40 MLOAD SWAP1 DUP2 ADD PUSH1 0x40 MSTORE DUP1 SWAP3 SWAP2 SWAP1 DUP2 DUP2 MSTORE PUSH1 0x20 ADD PUSH1 0x0 SWAP1 JUMPDEST DUP3 DUP3 LT ISZERO PUSH2 0xABB JUMPI DUP4 DUP3 SWAP1 PUSH1 0x0 MSTORE PUSH1 0x20 PUSH1 0x0 KECCAK256 ADD DUP1 SLOAD PUSH2 0xA2E SWAP1 PUSH2 0x2F5D JUMP JUMPDEST DUP1 PUSH1 0x1F ADD PUSH1 0x20 DUP1 SWAP2 DIV MUL PUSH1 0x20 ADD PUSH1 0x40 MLOAD SWAP1 DUP2 ADD PUSH1 0x40 MSTORE DUP1 SWAP3 SWAP2 SWAP1 DUP2 DUP2 MSTORE PUSH1 0x20 ADD DUP3 DUP1 SLOAD PUSH2 0xA5A SWAP1 PUSH2 0x2F5D JUMP JUMPDEST DUP1 ISZERO PUSH2 0xAA7 JUMPI DUP1 PUSH1 0x1F LT PUSH2 0xA7C JUMPI PUSH2 0x100 DUP1 DUP4 SLOAD DIV MUL DUP4 MSTORE SWAP2 PUSH1 0x20 ADD SWAP2 PUSH2 0xAA7 JUMP JUMPDEST DUP3 ADD SWAP2 SWAP1 PUSH1 0x0 MSTORE PUSH1 0x20 PUSH1 0x0 KECCAK256 SWAP1 JUMPDEST DUP2 SLOAD DUP2 MSTORE SWAP1 PUSH1 0x1 ADD SWAP1 PUSH1 0x20 ADD DUP1 DUP4 GT PUSH2 0xA8A JUMPI DUP3 SWAP1 SUB PUSH1 0x1F AND DUP3 ADD SWAP2 JUMPDEST POP POP POP POP POP DUP2 MSTORE PUSH1 0x20 ADD SWAP1 PUSH1 0x1 ADD SWAP1 PUSH2 0xA0F JUMP JUMPDEST POP POP POP POP DUP2 MSTORE PUSH1 0x20 ADD PUSH1 0x4 DUP3 ADD DUP1 SLOAD DUP1 PUSH1 0x20 MUL PUSH1 0x20 ADD PUSH1 0x40 MLOAD SWAP1 DUP2 ADD PUSH1 0x40 MSTORE DUP1 SWAP3 SWAP2 SWAP1 DUP2 DUP2 MSTORE PUSH1 0x20 ADD PUSH1 0x0 SWAP1 JUMPDEST DUP3 DUP3 LT ISZERO PUSH2 0xB94 JUMPI DUP4 DUP3 SWAP1 PUSH1 0x0 MSTORE PUSH1 0x20 PUSH1 0x0 KECCAK256 ADD DUP1 SLOAD PUSH2 0xB07 SWAP1 PUSH2 0x2F5D JUMP JUMPDEST DUP1 PUSH1 0x1F ADD PUSH1 0x20 DUP1 SWAP2 DIV MUL PUSH1 0x20 ADD PUSH1 0x40 MLOAD SWAP1 DUP2 ADD PUSH1 0x40 MSTORE DUP1 SWAP3 SWAP2 SWAP1 DUP2 DUP2 MSTORE PUSH1 0x20 ADD DUP3 DUP1 SLOAD PUSH2 0xB33 SWAP1 PUSH2 0x2F5D JUMP JUMPDEST DUP1 ISZERO PUSH2 0xB80 JUMPI DUP1 PUSH1 0x1F LT PUSH2 0xB55 JUMPI PUSH2 0x100 DUP1 DUP4 SLOAD DIV MUL DUP4 MSTORE SWAP2 PUSH1 0x20 ADD SWAP2 PUSH2 0xB80 JUMP JUMPDEST DUP3 ADD SWAP2 SWAP1 PUSH1 0x0 MSTORE PUSH1 0x20 PUSH1 0x0 KECCAK256 SWAP1 JUMPDEST DUP2 SLOAD DUP2 MSTORE SWAP1 PUSH1 0x1 ADD SWAP1 PUSH1 0x20 ADD DUP1 DUP4 GT PUSH2 0xB63 JUMPI DUP3 SWAP1 SUB PUSH1 0x1F AND DUP3 ADD SWAP2 JUMPDEST POP POP POP POP POP DUP2 MSTORE PUSH1 0x20 ADD SWAP1 PUSH1 0x1 ADD SWAP1 PUSH2 0xAE8 JUMP JUMPDEST POP POP POP SWAP1 DUP3 MSTORE POP PUSH1 0x5 DUP3 ADD SLOAD PUSH1 0x20 DUP3 ADD MSTORE PUSH1 0x6 DUP3 ADD SLOAD PUSH1 0x40 DUP3 ADD MSTORE PUSH1 0x7 SWAP2 DUP3 ADD SLOAD PUSH1 0x60 SWAP1 SWAP2 ADD MSTORE PUSH1 0x14 DUP4 ADD SLOAD PUSH1 0x15 DUP5 ADD SLOAD PUSH1 0x16 SWAP1 SWAP5 ADD SLOAD SWAP3 SWAP4 SWAP2 SIGNEXTEND SWAP2 DUP12 JUMP JUMPDEST CALLER PUSH2 0xBDC PUSH2 0x16F2 JUMP JUMPDEST PUSH1 0x1 PUSH1 0x1 PUSH1 0xA0 SHL SUB AND EQ PUSH2 0xC02 JUMPI PUSH1 0x40 MLOAD PUSH3 0x461BCD PUSH1 0xE5 SHL DUP2 MSTORE PUSH1 0x4 ADD PUSH2 0x42D SWAP1 PUSH2 0x2E35 JUMP JUMPDEST PUSH1 0x3 DUP1 SLOAD PUSH1 0x1 PUSH1 0x1 PUSH1 0xA0 SHL SUB SWAP1 SWAP3 AND PUSH2 0x100 MUL PUSH2 0x100 PUSH1 0x1 PUSH1 0xA8 SHL SUB NOT SWAP1 SWAP3 AND SWAP2 SWAP1 SWAP2 OR SWAP1 SSTORE JUMP JUMPDEST PUSH1 0x4 DUP1 SLOAD PUSH2 0xC37 SWAP1 PUSH2 0x2F5D JUMP JUMPDEST DUP1 PUSH1 0x1F ADD PUSH1 0x20 DUP1 SWAP2 DIV MUL PUSH1 0x20 ADD PUSH1 0x40 MLOAD SWAP1 DUP2 ADD PUSH1 0x40 MSTORE DUP1 SWAP3 SWAP2 SWAP1 DUP2 DUP2 MSTORE PUSH1 0x20 ADD DUP3 DUP1 SLOAD PUSH2 0xC63 SWAP1 PUSH2 0x2F5D JUMP JUMPDEST DUP1 ISZERO PUSH2 0xCB0 JUMPI DUP1 PUSH1 0x1F LT PUSH2 0xC85 JUMPI PUSH2 0x100 DUP1 DUP4 SLOAD DIV MUL DUP4 MSTORE SWAP2 PUSH1 0x20 ADD SWAP2 PUSH2 0xCB0 JUMP JUMPDEST DUP3 ADD SWAP2 SWAP1 PUSH1 0x0 MSTORE PUSH1 0x20 PUSH1 0x0 KECCAK256 SWAP1 JUMPDEST DUP2 SLOAD DUP2 MSTORE SWAP1 PUSH1 0x1 ADD SWAP1 PUSH1 0x20 ADD DUP1 DUP4 GT PUSH2 0xC93 JUMPI DUP3 SWAP1 SUB PUSH1 0x1F AND DUP3 ADD SWAP2 JUMPDEST POP POP POP POP POP DUP2 JUMP JUMPDEST CALLER PUSH2 0xCC1 PUSH2 0x16F2 JUMP JUMPDEST PUSH1 0x1 PUSH1 0x1 PUSH1 0xA0 SHL SUB AND EQ PUSH2 0xCE7 JUMPI PUSH1 0x40 MLOAD PUSH3 0x461BCD PUSH1 0xE5 SHL DUP2 MSTORE PUSH1 0x4 ADD PUSH2 0x42D SWAP1 PUSH2 0x2E35 JUMP JUMPDEST PUSH2 0xCF1 PUSH1 0x0 PUSH2 0x1E54 JUMP JUMPDEST JUMP JUMPDEST PUSH1 0x1 SLOAD PUSH1 0x1 PUSH1 0x1 PUSH1 0xA0 SHL SUB AND CALLER EQ PUSH2 0xD1D JUMPI PUSH1 0x40 MLOAD PUSH3 0x461BCD PUSH1 0xE5 SHL DUP2 MSTORE PUSH1 0x4 ADD PUSH2 0x42D SWAP1 PUSH2 0x2DD3 JUMP JUMPDEST DUP7 DUP7 PUSH1 0x2 DUP3 DUP3 PUSH1 0x40 MLOAD PUSH2 0xD31 SWAP3 SWAP2 SWAP1 PUSH2 0x2B2A JUMP JUMPDEST SWAP1 DUP2 MSTORE PUSH1 0x40 MLOAD SWAP1 DUP2 SWAP1 SUB PUSH1 0x20 ADD SWAP1 KECCAK256 SLOAD PUSH1 0xFF AND ISZERO ISZERO PUSH1 0x1 EQ PUSH2 0xD65 JUMPI PUSH1 0x40 MLOAD PUSH3 0x461BCD PUSH1 0xE5 SHL DUP2 MSTORE PUSH1 0x4 ADD PUSH2 0x42D SWAP1 PUSH2 0x2E08 JUMP JUMPDEST PUSH1 0x0 PUSH1 0x2 DUP11 DUP11 PUSH1 0x40 MLOAD PUSH2 0xD79 SWAP3 SWAP2 SWAP1 PUSH2 0x2B2A JUMP JUMPDEST SWAP1 DUP2 MSTORE PUSH1 0x20 ADD PUSH1 0x40 MLOAD DUP1 SWAP2 SUB SWAP1 KECCAK256 SWAP1 POP PUSH2 0xD93 DUP11 DUP11 PUSH2 0x458 JUMP JUMPDEST ISZERO PUSH2 0xEDF JUMPI PUSH1 0x3 SLOAD PUSH1 0x1 PUSH1 0xA8 SHL SWAP1 DIV PUSH1 0xFF AND PUSH2 0xE17 JUMPI PUSH1 0x40 MLOAD PUSH3 0x461BCD PUSH1 0xE5 SHL DUP2 MSTORE PUSH1 0x20 PUSH1 0x4 DUP3 ADD MSTORE PUSH1 0x3F PUSH1 0x24 DUP3 ADD MSTORE PUSH32 0x5468652067616D65206973206E6F742072756E6E696E672C20726F756E647320 PUSH1 0x44 DUP3 ADD MSTORE PUSH32 0x63616E206F6E6C7920626520656E646564206174207468697320706F696E7400 PUSH1 0x64 DUP3 ADD MSTORE PUSH1 0x84 ADD PUSH2 0x42D JUMP JUMPDEST DUP1 SLOAD PUSH5 0xFFFFFFFF00 NOT AND PUSH2 0x100 PUSH4 0xFFFFFFFF PUSH1 0x3 DUP9 SWAP1 SIGNEXTEND AND MUL OR DUP2 SSTORE PUSH1 0x14 DUP2 ADD DUP1 SLOAD PUSH1 0x1 PUSH1 0x1 PUSH1 0x40 SHL SUB NOT AND PUSH1 0x1 PUSH1 0x1 PUSH1 0x40 SHL SUB PUSH1 0x7 DUP12 SWAP1 SIGNEXTEND AND OR SWAP1 SSTORE PUSH1 0x15 DUP2 ADD DUP8 SWAP1 SSTORE PUSH1 0x16 DUP2 ADD DUP7 SWAP1 SSTORE PUSH1 0x40 MLOAD PUSH2 0xE72 SWAP1 DUP12 SWAP1 DUP12 SWAP1 PUSH2 0x2B2A JUMP JUMPDEST PUSH1 0x40 MLOAD DUP1 SWAP2 SUB SWAP1 KECCAK256 PUSH32 0x977F157300BB4D69D09B3E083FB55A17A0C02F978E5B220C08173C63DE9665AA DUP12 DUP12 DUP12 DUP6 PUSH1 0x0 ADD PUSH1 0x1 SWAP1 SLOAD SWAP1 PUSH2 0x100 EXP SWAP1 DIV PUSH1 0x3 SIGNEXTEND DUP7 PUSH1 0x1 ADD SLOAD DUP8 PUSH1 0x2 ADD SLOAD DUP9 PUSH1 0x3 ADD SLOAD PUSH1 0x40 MLOAD PUSH2 0xED2 SWAP8 SWAP7 SWAP6 SWAP5 SWAP4 SWAP3 SWAP2 SWAP1 PUSH2 0x2D40 JUMP JUMPDEST PUSH1 0x40 MLOAD DUP1 SWAP2 SUB SWAP1 LOG2 PUSH2 0xFA9 JUMP JUMPDEST DUP1 SLOAD PUSH1 0x1 PUSH1 0x28 SHL SWAP1 DIV PUSH1 0x3 SWAP1 DUP2 SIGNEXTEND SWAP1 SIGNEXTEND PUSH2 0xF90 JUMPI DUP1 SLOAD PUSH4 0xFFFFFFFF PUSH1 0x28 SHL NOT AND PUSH1 0x1 PUSH1 0x28 SHL PUSH4 0xFFFFFFFF PUSH1 0x3 DUP9 SWAP1 SIGNEXTEND AND MUL OR DUP2 SSTORE PUSH1 0x40 MLOAD PUSH2 0xF23 SWAP1 DUP12 SWAP1 DUP12 SWAP1 PUSH2 0x2B2A JUMP JUMPDEST PUSH1 0x40 MLOAD SWAP1 DUP2 SWAP1 SUB DUP2 KECCAK256 DUP3 SLOAD SWAP1 SWAP2 PUSH32 0xE097BF610F5827FFCDD36EB07B790E6EE02DD498F911AB45664208CFAD9323B0 SWAP2 PUSH2 0xF77 SWAP2 DUP15 SWAP2 DUP15 SWAP2 DUP15 SWAP2 PUSH2 0x100 DUP2 DIV PUSH1 0x3 SWAP1 DUP2 SIGNEXTEND SWAP3 PUSH1 0x1 PUSH1 0x28 SHL SWAP1 SWAP3 DIV SWAP1 SIGNEXTEND SWAP1 PUSH2 0x2D08 JUMP JUMPDEST PUSH1 0x40 MLOAD DUP1 SWAP2 SUB SWAP1 LOG2 PUSH2 0xF8B DUP11 DUP11 DUP7 DUP12 PUSH2 0x1701 JUMP JUMPDEST PUSH2 0xFA9 JUMP JUMPDEST PUSH1 0x40 MLOAD PUSH4 0xD56BE5DB PUSH1 0xE0 SHL DUP2 MSTORE PUSH1 0x4 ADD PUSH1 0x40 MLOAD DUP1 SWAP2 SUB SWAP1 REVERT JUMPDEST POP POP POP POP POP POP POP POP POP POP JUMP JUMPDEST PUSH2 0xFBF DUP2 DUP1 PUSH2 0x2EAB JUMP JUMPDEST PUSH2 0xFC9 DUP3 DUP3 PUSH2 0x458 JUMP JUMPDEST PUSH2 0x101F JUMPI PUSH1 0x40 MLOAD PUSH3 0x461BCD PUSH1 0xE5 SHL DUP2 MSTORE PUSH1 0x20 PUSH1 0x4 DUP3 ADD MSTORE PUSH1 0x21 PUSH1 0x24 DUP3 ADD MSTORE PUSH32 0x5468697320706F6F6C20686173206120726F756E6420696E2070726F67726573 PUSH1 0x44 DUP3 ADD MSTORE PUSH1 0x73 PUSH1 0xF8 SHL PUSH1 0x64 DUP3 ADD MSTORE PUSH1 0x84 ADD PUSH2 0x42D JUMP JUMPDEST PUSH1 0x3 SLOAD PUSH1 0x1 PUSH1 0xA8 SHL SWAP1 DIV PUSH1 0xFF AND PUSH2 0x1072 JUMPI PUSH1 0x40 MLOAD PUSH3 0x461BCD PUSH1 0xE5 SHL DUP2 MSTORE PUSH1 0x20 PUSH1 0x4 DUP3 ADD MSTORE PUSH1 0x17 PUSH1 0x24 DUP3 ADD MSTORE PUSH23 0x5468652067616D65206973206E6F742072756E6E696E67 PUSH1 0x48 SHL PUSH1 0x44 DUP3 ADD MSTORE PUSH1 0x64 ADD PUSH2 0x42D JUMP JUMPDEST PUSH2 0x107C DUP4 DUP1 PUSH2 0x2EAB JUMP JUMPDEST PUSH1 0x2 DUP3 DUP3 PUSH1 0x40 MLOAD PUSH2 0x108E SWAP3 SWAP2 SWAP1 PUSH2 0x2B2A JUMP JUMPDEST SWAP1 DUP2 MSTORE PUSH1 0x40 MLOAD SWAP1 DUP2 SWAP1 SUB PUSH1 0x20 ADD SWAP1 KECCAK256 SLOAD PUSH1 0xFF AND ISZERO ISZERO PUSH1 0x1 EQ PUSH2 0x10C2 JUMPI PUSH1 0x40 MLOAD PUSH3 0x461BCD PUSH1 0xE5 SHL DUP2 MSTORE PUSH1 0x4 ADD PUSH2 0x42D SWAP1 PUSH2 0x2E08 JUMP JUMPDEST PUSH1 0x0 CALLVALUE GT PUSH2 0x1111 JUMPI PUSH1 0x40 MLOAD PUSH3 0x461BCD PUSH1 0xE5 SHL DUP2 MSTORE PUSH1 0x20 PUSH1 0x4 DUP3 ADD MSTORE PUSH1 0x1C PUSH1 0x24 DUP3 ADD MSTORE PUSH28 0x4E6565647320746F2073656E64204D6174696320746F207472616465 PUSH1 0x20 SHL PUSH1 0x44 DUP3 ADD MSTORE PUSH1 0x64 ADD PUSH2 0x42D JUMP JUMPDEST PUSH1 0x2 PUSH2 0x111D DUP7 DUP1 PUSH2 0x2EAB JUMP JUMPDEST PUSH1 0x40 MLOAD PUSH2 0x112B SWAP3 SWAP2 SWAP1 PUSH2 0x2B2A JUMP JUMPDEST SWAP1 DUP2 MSTORE PUSH1 0x20 ADD PUSH1 0x40 MLOAD DUP1 SWAP2 SUB SWAP1 KECCAK256 PUSH1 0x1 ADD SLOAD CALLVALUE LT ISZERO PUSH2 0x11A3 JUMPI PUSH1 0x40 MLOAD PUSH3 0x461BCD PUSH1 0xE5 SHL DUP2 MSTORE PUSH1 0x20 PUSH1 0x4 DUP3 ADD MSTORE PUSH1 0x2E PUSH1 0x24 DUP3 ADD MSTORE PUSH32 0x547261646520616D6F756E742073686F756C6420626520686967686572207468 PUSH1 0x44 DUP3 ADD MSTORE PUSH14 0x616E20746865206D696E696D756D PUSH1 0x90 SHL PUSH1 0x64 DUP3 ADD MSTORE PUSH1 0x84 ADD PUSH2 0x42D JUMP JUMPDEST PUSH1 0x2 PUSH2 0x11AF DUP7 DUP1 PUSH2 0x2EAB JUMP JUMPDEST PUSH1 0x40 MLOAD PUSH2 0x11BD SWAP3 SWAP2 SWAP1 PUSH2 0x2B2A JUMP JUMPDEST SWAP1 DUP2 MSTORE PUSH1 0x20 ADD PUSH1 0x40 MLOAD DUP1 SWAP2 SUB SWAP1 KECCAK256 PUSH1 0x2 ADD SLOAD CALLVALUE GT ISZERO PUSH2 0x1234 JUMPI PUSH1 0x40 MLOAD PUSH3 0x461BCD PUSH1 0xE5 SHL DUP2 MSTORE PUSH1 0x20 PUSH1 0x4 DUP3 ADD MSTORE PUSH1 0x2D PUSH1 0x24 DUP3 ADD MSTORE PUSH32 0x547261646520616D6F756E742073686F756C64206265206C6F77657220746861 PUSH1 0x44 DUP3 ADD MSTORE PUSH13 0x6E20746865206D6178696D756D PUSH1 0x98 SHL PUSH1 0x64 DUP3 ADD MSTORE PUSH1 0x84 ADD PUSH2 0x42D JUMP JUMPDEST PUSH1 0x2 PUSH2 0x1240 DUP7 DUP1 PUSH2 0x2EAB JUMP JUMPDEST PUSH1 0x40 MLOAD PUSH2 0x124E SWAP3 SWAP2 SWAP1 PUSH2 0x2B2A JUMP JUMPDEST SWAP1 DUP2 MSTORE PUSH1 0x20 ADD PUSH1 0x40 MLOAD DUP1 SWAP2 SUB SWAP1 KECCAK256 PUSH1 0x16 ADD SLOAD TIMESTAMP GT ISZERO PUSH2 0x12A2 JUMPI PUSH1 0x40 MLOAD PUSH3 0x461BCD PUSH1 0xE5 SHL DUP2 MSTORE PUSH1 0x20 PUSH1 0x4 DUP3 ADD MSTORE PUSH1 0x10 PUSH1 0x24 DUP3 ADD MSTORE PUSH16 0x526F756E6420697320636C6F73696E67 PUSH1 0x80 SHL PUSH1 0x44 DUP3 ADD MSTORE PUSH1 0x64 ADD PUSH2 0x42D JUMP JUMPDEST PUSH1 0x2 PUSH2 0x12AE DUP7 DUP1 PUSH2 0x2EAB JUMP JUMPDEST PUSH1 0x40 MLOAD PUSH2 0x12BC SWAP3 SWAP2 SWAP1 PUSH2 0x2B2A JUMP JUMPDEST SWAP1 DUP2 MSTORE PUSH1 0x20 ADD PUSH1 0x40 MLOAD DUP1 SWAP2 SUB SWAP1 KECCAK256 PUSH1 0x15 ADD SLOAD TIMESTAMP LT ISZERO PUSH2 0x1315 JUMPI PUSH1 0x40 MLOAD PUSH3 0x461BCD PUSH1 0xE5 SHL DUP2 MSTORE PUSH1 0x20 PUSH1 0x4 DUP3 ADD MSTORE PUSH1 0x15 PUSH1 0x24 DUP3 ADD MSTORE PUSH21 0x149BDD5B99081B9BDD081CDD185C9D1959081E595D PUSH1 0x5A SHL PUSH1 0x44 DUP3 ADD MSTORE PUSH1 0x64 ADD PUSH2 0x42D JUMP JUMPDEST PUSH1 0x0 PUSH2 0x1327 PUSH1 0x80 DUP8 ADD PUSH1 0x60 DUP9 ADD PUSH2 0x2600 JUMP JUMPDEST ISZERO PUSH2 0x1414 JUMPI PUSH1 0x1 PUSH1 0x2 PUSH2 0x133A DUP9 DUP1 PUSH2 0x2EAB JUMP JUMPDEST PUSH1 0x40 MLOAD PUSH2 0x1348 SWAP3 SWAP2 SWAP1 PUSH2 0x2B2A JUMP JUMPDEST SWAP1 DUP2 MSTORE PUSH1 0x20 ADD PUSH1 0x40 MLOAD DUP1 SWAP2 SUB SWAP1 KECCAK256 PUSH1 0x3 ADD SLOAD PUSH2 0x1364 SWAP2 SWAP1 PUSH2 0x2F46 JUMP JUMPDEST PUSH1 0x2 PUSH2 0x1370 DUP9 DUP1 PUSH2 0x2EAB JUMP JUMPDEST PUSH1 0x40 MLOAD PUSH2 0x137E SWAP3 SWAP2 SWAP1 PUSH2 0x2B2A JUMP JUMPDEST SWAP1 DUP2 MSTORE PUSH1 0x40 MLOAD SWAP1 DUP2 SWAP1 SUB PUSH1 0x20 ADD SWAP1 KECCAK256 PUSH1 0x4 ADD SLOAD GT ISZERO PUSH2 0x13AF JUMPI PUSH1 0x40 MLOAD PUSH3 0x461BCD PUSH1 0xE5 SHL DUP2 MSTORE PUSH1 0x4 ADD PUSH2 0x42D SWAP1 PUSH2 0x2E6A JUMP JUMPDEST PUSH2 0x140D PUSH1 0x2 PUSH2 0x13BE DUP9 DUP1 PUSH2 0x2EAB JUMP JUMPDEST PUSH1 0x40 MLOAD PUSH2 0x13CC SWAP3 SWAP2 SWAP1 PUSH2 0x2B2A JUMP JUMPDEST SWAP1 DUP2 MSTORE PUSH1 0x20 ADD PUSH1 0x40 MLOAD DUP1 SWAP2 SUB SWAP1 KECCAK256 PUSH1 0x4 ADD CALLVALUE DUP9 DUP1 PUSH1 0x20 ADD SWAP1 PUSH2 0x13EE SWAP2 SWAP1 PUSH2 0x2EAB JUMP JUMPDEST PUSH2 0x13FB PUSH1 0x40 DUP13 ADD DUP13 PUSH2 0x2EAB JUMP JUMPDEST PUSH2 0x1408 PUSH1 0x80 DUP15 ADD DUP15 PUSH2 0x2EAB JUMP JUMPDEST PUSH2 0x1EA4 JUMP JUMPDEST SWAP1 POP PUSH2 0x14D9 JUMP JUMPDEST PUSH1 0x1 PUSH1 0x2 PUSH2 0x1422 DUP9 DUP1 PUSH2 0x2EAB JUMP JUMPDEST PUSH1 0x40 MLOAD PUSH2 0x1430 SWAP3 SWAP2 SWAP1 PUSH2 0x2B2A JUMP JUMPDEST SWAP1 DUP2 MSTORE PUSH1 0x20 ADD PUSH1 0x40 MLOAD DUP1 SWAP2 SUB SWAP1 KECCAK256 PUSH1 0x3 ADD SLOAD PUSH2 0x144C SWAP2 SWAP1 PUSH2 0x2F46 JUMP JUMPDEST PUSH1 0x2 PUSH2 0x1458 DUP9 DUP1 PUSH2 0x2EAB JUMP JUMPDEST PUSH1 0x40 MLOAD PUSH2 0x1466 SWAP3 SWAP2 SWAP1 PUSH2 0x2B2A JUMP JUMPDEST SWAP1 DUP2 MSTORE PUSH1 0x40 MLOAD SWAP1 DUP2 SWAP1 SUB PUSH1 0x20 ADD SWAP1 KECCAK256 PUSH1 0xC ADD SLOAD GT ISZERO PUSH2 0x1497 JUMPI PUSH1 0x40 MLOAD PUSH3 0x461BCD PUSH1 0xE5 SHL DUP2 MSTORE PUSH1 0x4 ADD PUSH2 0x42D SWAP1 PUSH2 0x2E6A JUMP JUMPDEST PUSH2 0x14D6 PUSH1 0x2 PUSH2 0x14A6 DUP9 DUP1 PUSH2 0x2EAB JUMP JUMPDEST PUSH1 0x40 MLOAD PUSH2 0x14B4 SWAP3 SWAP2 SWAP1 PUSH2 0x2B2A JUMP JUMPDEST SWAP1 DUP2 MSTORE PUSH1 0x20 ADD PUSH1 0x40 MLOAD DUP1 SWAP2 SUB SWAP1 KECCAK256 PUSH1 0xC ADD CALLVALUE DUP9 DUP1 PUSH1 0x20 ADD SWAP1 PUSH2 0x13EE SWAP2 SWAP1 PUSH2 0x2EAB JUMP JUMPDEST SWAP1 POP JUMPDEST PUSH2 0x1507 PUSH1 0x40 MLOAD DUP1 PUSH1 0x80 ADD PUSH1 0x40 MSTORE DUP1 PUSH1 0x60 DUP2 MSTORE PUSH1 0x20 ADD PUSH1 0x60 DUP2 MSTORE PUSH1 0x20 ADD PUSH1 0x60 DUP2 MSTORE PUSH1 0x20 ADD PUSH1 0x0 PUSH1 0x7 SIGNEXTEND DUP2 MSTORE POP SWAP1 JUMP JUMPDEST PUSH2 0x1514 PUSH1 0x20 DUP9 ADD DUP9 PUSH2 0x2EAB JUMP JUMPDEST DUP1 DUP1 PUSH1 0x1F ADD PUSH1 0x20 DUP1 SWAP2 DIV MUL PUSH1 0x20 ADD PUSH1 0x40 MLOAD SWAP1 DUP2 ADD PUSH1 0x40 MSTORE DUP1 SWAP4 SWAP3 SWAP2 SWAP1 DUP2 DUP2 MSTORE PUSH1 0x20 ADD DUP4 DUP4 DUP1 DUP3 DUP5 CALLDATACOPY PUSH1 0x0 SWAP3 ADD SWAP2 SWAP1 SWAP2 MSTORE POP POP POP SWAP1 DUP3 MSTORE POP PUSH2 0x1558 PUSH1 0x40 DUP9 ADD DUP9 PUSH2 0x2EAB JUMP JUMPDEST DUP1 DUP1 PUSH1 0x1F ADD PUSH1 0x20 DUP1 SWAP2 DIV MUL PUSH1 0x20 ADD PUSH1 0x40 MLOAD SWAP1 DUP2 ADD PUSH1 0x40 MSTORE DUP1 SWAP4 SWAP3 SWAP2 SWAP1 DUP2 DUP2 MSTORE PUSH1 0x20 ADD DUP4 DUP4 DUP1 DUP3 DUP5 CALLDATACOPY PUSH1 0x0 SWAP3 ADD SWAP2 SWAP1 SWAP2 MSTORE POP POP POP POP PUSH1 0x20 DUP3 ADD MSTORE PUSH2 0x159E PUSH1 0x80 DUP9 ADD DUP9 PUSH2 0x2EAB JUMP JUMPDEST DUP1 DUP1 PUSH1 0x1F ADD PUSH1 0x20 DUP1 SWAP2 DIV MUL PUSH1 0x20 ADD PUSH1 0x40 MLOAD SWAP1 DUP2 ADD PUSH1 0x40 MSTORE DUP1 SWAP4 SWAP3 SWAP2 SWAP1 DUP2 DUP2 MSTORE PUSH1 0x20 ADD DUP4 DUP4 DUP1 DUP3 DUP5 CALLDATACOPY PUSH1 0x0 SWAP3 ADD SWAP2 SWAP1 SWAP2 MSTORE POP POP POP POP PUSH1 0x40 DUP3 ADD MSTORE PUSH1 0x2 PUSH2 0x15E3 DUP9 DUP1 PUSH2 0x2EAB JUMP JUMPDEST PUSH1 0x40 MLOAD PUSH2 0x15F1 SWAP3 SWAP2 SWAP1 PUSH2 0x2B2A JUMP JUMPDEST SWAP1 DUP2 MSTORE PUSH1 0x40 MLOAD SWAP1 DUP2 SWAP1 SUB PUSH1 0x20 ADD SWAP1 KECCAK256 PUSH1 0x14 ADD SLOAD PUSH1 0x7 SWAP1 DUP2 SIGNEXTEND DUP2 SIGNEXTEND SWAP1 SIGNEXTEND PUSH1 0x60 DUP3 ADD MSTORE CALLER PUSH2 0x161D DUP9 DUP1 PUSH2 0x2EAB JUMP JUMPDEST PUSH1 0x40 MLOAD PUSH2 0x162B SWAP3 SWAP2 SWAP1 PUSH2 0x2B2A JUMP JUMPDEST PUSH1 0x40 MLOAD SWAP1 DUP2 SWAP1 SUB SWAP1 KECCAK256 PUSH32 0x68F6FC9B4292A4019C38F766D951DADA112BF514A9FA2245E113DD0D72F28615 PUSH2 0x165F DUP11 DUP1 PUSH2 0x2EAB JUMP JUMPDEST CALLER CALLVALUE DUP14 PUSH1 0x60 ADD PUSH1 0x20 DUP2 ADD SWAP1 PUSH2 0x1674 SWAP2 SWAP1 PUSH2 0x2600 JUMP JUMPDEST PUSH2 0x169A JUMPI PUSH1 0x40 MLOAD DUP1 PUSH1 0x40 ADD PUSH1 0x40 MSTORE DUP1 PUSH1 0x4 DUP2 MSTORE PUSH1 0x20 ADD PUSH4 0x2227ABA7 PUSH1 0xE1 SHL DUP2 MSTORE POP PUSH2 0x16B6 JUMP JUMPDEST PUSH1 0x40 MLOAD DUP1 PUSH1 0x40 ADD PUSH1 0x40 MSTORE DUP1 PUSH1 0x2 DUP2 MSTORE PUSH1 0x20 ADD PUSH2 0x555 PUSH1 0xF4 SHL DUP2 MSTORE POP JUMPDEST DUP10 DUP10 PUSH1 0x0 ADD MLOAD DUP11 PUSH1 0x20 ADD MLOAD DUP12 PUSH1 0x60 ADD MLOAD DUP13 PUSH1 0x40 ADD MLOAD PUSH1 0x40 MLOAD PUSH2 0x16E1 SWAP11 SWAP10 SWAP9 SWAP8 SWAP7 SWAP6 SWAP5 SWAP4 SWAP3 SWAP2 SWAP1 PUSH2 0x2BD4 JUMP JUMPDEST PUSH1 0x40 MLOAD DUP1 SWAP2 SUB SWAP1 LOG3 POP POP POP POP POP POP POP JUMP JUMPDEST PUSH1 0x0 SLOAD PUSH1 0x1 PUSH1 0x1 PUSH1 0xA0 SHL SUB AND SWAP1 JUMP JUMPDEST PUSH1 0x1 SLOAD PUSH1 0x1 PUSH1 0x1 PUSH1 0xA0 SHL SUB AND CALLER EQ PUSH2 0x172B JUMPI PUSH1 0x40 MLOAD PUSH3 0x461BCD PUSH1 0xE5 SHL DUP2 MSTORE PUSH1 0x4 ADD PUSH2 0x42D SWAP1 PUSH2 0x2DD3 JUMP JUMPDEST DUP4 DUP4 PUSH1 0x2 DUP3 DUP3 PUSH1 0x40 MLOAD PUSH2 0x173F SWAP3 SWAP2 SWAP1 PUSH2 0x2B2A JUMP JUMPDEST SWAP1 DUP2 MSTORE PUSH1 0x40 MLOAD SWAP1 DUP2 SWAP1 SUB PUSH1 0x20 ADD SWAP1 KECCAK256 SLOAD PUSH1 0xFF AND ISZERO ISZERO PUSH1 0x1 EQ PUSH2 0x1773 JUMPI PUSH1 0x40 MLOAD PUSH3 0x461BCD PUSH1 0xE5 SHL DUP2 MSTORE PUSH1 0x4 ADD PUSH2 0x42D SWAP1 PUSH2 0x2E08 JUMP JUMPDEST PUSH1 0x0 PUSH1 0x2 DUP8 DUP8 PUSH1 0x40 MLOAD PUSH2 0x1787 SWAP3 SWAP2 SWAP1 PUSH2 0x2B2A JUMP JUMPDEST SWAP1 DUP2 MSTORE PUSH1 0x40 MLOAD SWAP1 DUP2 SWAP1 SUB PUSH1 0x20 ADD SWAP1 KECCAK256 PUSH1 0x4 DUP2 ADD SLOAD SWAP1 SWAP2 POP ISZERO DUP1 PUSH2 0x17AC JUMPI POP PUSH1 0xC DUP2 ADD SLOAD ISZERO JUMPDEST ISZERO PUSH2 0x1833 JUMPI PUSH1 0xC DUP2 ADD SLOAD PUSH1 0x0 SWAP1 ISZERO PUSH2 0x17C7 JUMPI DUP2 PUSH1 0xC ADD PUSH2 0x17CC JUMP JUMPDEST DUP2 PUSH1 0x4 ADD JUMPDEST PUSH1 0x6 DUP2 ADD SLOAD SWAP1 SWAP2 POP PUSH2 0x17E0 DUP10 DUP10 DUP5 DUP11 PUSH2 0x1F6C JUMP JUMPDEST DUP2 SLOAD PUSH1 0x6 DUP4 ADD SLOAD PUSH1 0x40 MLOAD PUSH1 0x0 DUP1 MLOAD PUSH1 0x20 PUSH2 0x2FE0 DUP4 CODECOPY DUP2 MLOAD SWAP2 MSTORE SWAP3 PUSH2 0x180C SWAP3 DUP14 SWAP3 DUP14 SWAP3 SWAP2 DUP8 SWAP2 DUP14 SWAP1 PUSH2 0x2D84 JUMP JUMPDEST PUSH1 0x40 MLOAD DUP1 SWAP2 SUB SWAP1 LOG1 DUP2 SLOAD PUSH1 0x6 DUP4 ADD SLOAD EQ ISZERO PUSH2 0x182B JUMPI PUSH2 0x182B DUP10 DUP10 PUSH2 0x2127 JUMP JUMPDEST POP POP POP PUSH2 0x1B7A JUMP JUMPDEST DUP1 SLOAD PUSH1 0xC DUP3 ADD SWAP1 PUSH1 0x4 DUP4 ADD SWAP1 PUSH1 0x1 PUSH1 0x28 SHL DUP2 DIV PUSH1 0x3 SWAP1 DUP2 SIGNEXTEND DUP2 SIGNEXTEND PUSH2 0x100 SWAP1 SWAP3 DIV DUP2 SIGNEXTEND SWAP1 SIGNEXTEND SLT ISZERO PUSH2 0x1868 JUMPI POP POP PUSH1 0x4 DUP2 ADD PUSH1 0xC DUP3 ADD JUMPDEST PUSH1 0x0 PUSH2 0x1874 DUP4 DUP4 PUSH2 0x2289 JUMP JUMPDEST SWAP1 POP PUSH1 0x0 DUP9 PUSH4 0xFFFFFFFF AND DUP3 PUSH1 0x40 ADD MLOAD GT PUSH2 0x1893 JUMPI DUP2 PUSH1 0x40 ADD MLOAD PUSH2 0x189B JUMP JUMPDEST DUP9 PUSH4 0xFFFFFFFF AND JUMPDEST SWAP1 POP PUSH1 0x0 DUP2 DUP6 PUSH1 0x6 ADD SLOAD PUSH2 0x18AF SWAP2 SWAP1 PUSH2 0x2EEF JUMP JUMPDEST PUSH1 0x6 DUP7 ADD SLOAD SWAP1 SWAP2 POP JUMPDEST DUP2 DUP2 LT ISZERO PUSH2 0x1AE8 JUMPI PUSH1 0x0 PUSH1 0x64 DUP6 PUSH1 0x20 ADD MLOAD DUP9 PUSH1 0x5 ADD SLOAD DUP10 PUSH1 0x0 ADD DUP6 DUP2 SLOAD DUP2 LT PUSH2 0x18F1 JUMPI PUSH4 0x4E487B71 PUSH1 0xE0 SHL PUSH1 0x0 MSTORE PUSH1 0x32 PUSH1 0x4 MSTORE PUSH1 0x24 PUSH1 0x0 REVERT JUMPDEST SWAP1 PUSH1 0x0 MSTORE PUSH1 0x20 PUSH1 0x0 KECCAK256 ADD SLOAD PUSH1 0x64 PUSH2 0x1908 SWAP2 SWAP1 PUSH2 0x2F27 JUMP JUMPDEST PUSH2 0x1912 SWAP2 SWAP1 PUSH2 0x2F07 JUMP JUMPDEST PUSH2 0x191C SWAP2 SWAP1 PUSH2 0x2F27 JUMP JUMPDEST PUSH2 0x1926 SWAP2 SWAP1 PUSH2 0x2F07 JUMP JUMPDEST SWAP1 POP PUSH2 0x19A3 DUP8 PUSH1 0x1 ADD DUP4 DUP2 SLOAD DUP2 LT PUSH2 0x194E JUMPI PUSH4 0x4E487B71 PUSH1 0xE0 SHL PUSH1 0x0 MSTORE PUSH1 0x32 PUSH1 0x4 MSTORE PUSH1 0x24 PUSH1 0x0 REVERT JUMPDEST PUSH1 0x0 SWAP2 DUP3 MSTORE PUSH1 0x20 SWAP1 SWAP2 KECCAK256 ADD SLOAD DUP9 SLOAD PUSH1 0x1 PUSH1 0x1 PUSH1 0xA0 SHL SUB SWAP1 SWAP2 AND SWAP1 DUP10 SWAP1 DUP6 SWAP1 DUP2 LT PUSH2 0x1988 JUMPI PUSH4 0x4E487B71 PUSH1 0xE0 SHL PUSH1 0x0 MSTORE PUSH1 0x32 PUSH1 0x4 MSTORE PUSH1 0x24 PUSH1 0x0 REVERT JUMPDEST SWAP1 PUSH1 0x0 MSTORE PUSH1 0x20 PUSH1 0x0 KECCAK256 ADD SLOAD DUP4 PUSH2 0x199E SWAP2 SWAP1 PUSH2 0x2EEF JUMP JUMPDEST PUSH2 0x231D JUMP JUMPDEST DUP7 PUSH1 0x1 ADD DUP3 DUP2 SLOAD DUP2 LT PUSH2 0x19C6 JUMPI PUSH4 0x4E487B71 PUSH1 0xE0 SHL PUSH1 0x0 MSTORE PUSH1 0x32 PUSH1 0x4 MSTORE PUSH1 0x24 PUSH1 0x0 REVERT JUMPDEST SWAP1 PUSH1 0x0 MSTORE PUSH1 0x20 PUSH1 0x0 KECCAK256 ADD PUSH1 0x0 SWAP1 SLOAD SWAP1 PUSH2 0x100 EXP SWAP1 DIV PUSH1 0x1 PUSH1 0x1 PUSH1 0xA0 SHL SUB AND PUSH1 0x1 PUSH1 0x1 PUSH1 0xA0 SHL SUB AND PUSH32 0xF31160DBE9F89C709F800E64E885259133C3A7A81D5997E727A35A9BC0896DCA DUP16 DUP16 DUP11 PUSH1 0x1 ADD DUP7 DUP2 SLOAD DUP2 LT PUSH2 0x1A33 JUMPI PUSH4 0x4E487B71 PUSH1 0xE0 SHL PUSH1 0x0 MSTORE PUSH1 0x32 PUSH1 0x4 MSTORE PUSH1 0x24 PUSH1 0x0 REVERT JUMPDEST PUSH1 0x0 SWAP2 DUP3 MSTORE PUSH1 0x20 SWAP1 SWAP2 KECCAK256 ADD SLOAD DUP12 SLOAD PUSH1 0x1 PUSH1 0x1 PUSH1 0xA0 SHL SUB SWAP1 SWAP2 AND SWAP1 DUP13 SWAP1 DUP9 SWAP1 DUP2 LT PUSH2 0x1A6D JUMPI PUSH4 0x4E487B71 PUSH1 0xE0 SHL PUSH1 0x0 MSTORE PUSH1 0x32 PUSH1 0x4 MSTORE PUSH1 0x24 PUSH1 0x0 REVERT JUMPDEST SWAP1 PUSH1 0x0 MSTORE PUSH1 0x20 PUSH1 0x0 KECCAK256 ADD SLOAD DUP7 DUP14 PUSH1 0x4 ADD DUP10 DUP2 SLOAD DUP2 LT PUSH2 0x1A9C JUMPI PUSH4 0x4E487B71 PUSH1 0xE0 SHL PUSH1 0x0 MSTORE PUSH1 0x32 PUSH1 0x4 MSTORE PUSH1 0x24 PUSH1 0x0 REVERT JUMPDEST SWAP1 PUSH1 0x0 MSTORE PUSH1 0x20 PUSH1 0x0 KECCAK256 ADD PUSH1 0x40 MLOAD PUSH2 0x1AB8 SWAP7 SWAP6 SWAP5 SWAP4 SWAP3 SWAP2 SWAP1 PUSH2 0x2CB8 JUMP JUMPDEST PUSH1 0x40 MLOAD DUP1 SWAP2 SUB SWAP1 LOG2 DUP1 DUP8 PUSH1 0x7 ADD SLOAD PUSH2 0x1AD0 SWAP2 SWAP1 PUSH2 0x2EEF JUMP JUMPDEST PUSH1 0x7 DUP9 ADD SSTORE POP DUP1 PUSH2 0x1AE0 DUP2 PUSH2 0x2F98 JUMP JUMPDEST SWAP2 POP POP PUSH2 0x18B8 JUMP JUMPDEST POP PUSH1 0x0 DUP1 MLOAD PUSH1 0x20 PUSH2 0x2FE0 DUP4 CODECOPY DUP2 MLOAD SWAP2 MSTORE DUP13 DUP13 DUP8 PUSH1 0x0 ADD DUP1 SLOAD SWAP1 POP DUP9 PUSH1 0x6 ADD SLOAD DUP6 DUP15 PUSH1 0x40 MLOAD PUSH2 0x1B1B SWAP7 SWAP6 SWAP5 SWAP4 SWAP3 SWAP2 SWAP1 PUSH2 0x2D84 JUMP JUMPDEST PUSH1 0x40 MLOAD DUP1 SWAP2 SUB SWAP1 LOG1 PUSH1 0x6 DUP6 ADD DUP2 SWAP1 SSTORE DUP5 SLOAD DUP2 EQ ISZERO PUSH2 0x1B73 JUMPI PUSH1 0x3 SLOAD PUSH1 0x7 DUP7 ADD SLOAD PUSH1 0x20 DUP6 ADD MLOAD DUP6 MLOAD PUSH2 0x1B69 SWAP4 PUSH2 0x100 SWAP1 DIV PUSH1 0x1 PUSH1 0x1 PUSH1 0xA0 SHL SUB AND SWAP3 SWAP2 PUSH2 0x1B5F SWAP2 PUSH2 0x2EEF JUMP JUMPDEST PUSH2 0x199E SWAP2 SWAP1 PUSH2 0x2F46 JUMP JUMPDEST PUSH2 0x1B73 DUP13 DUP13 PUSH2 0x2127 JUMP JUMPDEST POP POP POP POP POP POP JUMPDEST POP POP POP POP POP POP JUMP JUMPDEST CALLER PUSH2 0x1B8B PUSH2 0x16F2 JUMP JUMPDEST PUSH1 0x1 PUSH1 0x1 PUSH1 0xA0 SHL SUB AND EQ PUSH2 0x1BB1 JUMPI PUSH1 0x40 MLOAD PUSH3 0x461BCD PUSH1 0xE5 SHL DUP2 MSTORE PUSH1 0x4 ADD PUSH2 0x42D SWAP1 PUSH2 0x2E35 JUMP JUMPDEST PUSH1 0x3 DUP1 SLOAD PUSH1 0xFF NOT AND PUSH1 0xFF SWAP3 SWAP1 SWAP3 AND SWAP2 SWAP1 SWAP2 OR SWAP1 SSTORE JUMP JUMPDEST CALLER PUSH2 0x1BD0 PUSH2 0x16F2 JUMP JUMPDEST PUSH1 0x1 PUSH1 0x1 PUSH1 0xA0 SHL SUB AND EQ PUSH2 0x1BF6 JUMPI PUSH1 0x40 MLOAD PUSH3 0x461BCD PUSH1 0xE5 SHL DUP2 MSTORE PUSH1 0x4 ADD PUSH2 0x42D SWAP1 PUSH2 0x2E35 JUMP JUMPDEST PUSH1 0x3 DUP1 SLOAD PUSH1 0xFF PUSH1 0xA8 SHL NOT AND PUSH1 0x1 PUSH1 0xA8 SHL OR SWAP1 SSTORE PUSH1 0x40 DUP1 MLOAD PUSH1 0x20 DUP2 ADD SWAP2 DUP3 SWAP1 MSTORE PUSH1 0x0 SWAP1 DUP2 SWAP1 MSTORE PUSH2 0x1C27 SWAP2 PUSH1 0x4 SWAP2 PUSH2 0x23C1 JUMP JUMPDEST POP PUSH1 0x40 MLOAD PUSH32 0x762F260439BB4BE3EF6E4DC2786E2E7BD187D3D80B79057D7A424FE98563E335 SWAP1 PUSH1 0x0 SWAP1 LOG1 JUMP JUMPDEST PUSH1 0x1 SLOAD PUSH1 0x1 PUSH1 0x1 PUSH1 0xA0 SHL SUB AND CALLER EQ PUSH2 0x1C7D JUMPI PUSH1 0x40 MLOAD PUSH3 0x461BCD PUSH1 0xE5 SHL DUP2 MSTORE PUSH1 0x4 ADD PUSH2 0x42D SWAP1 PUSH2 0x2DD3 JUMP JUMPDEST PUSH1 0x1 PUSH1 0x2 DUP7 DUP7 PUSH1 0x40 MLOAD PUSH2 0x1C91 SWAP3 SWAP2 SWAP1 PUSH2 0x2B2A JUMP JUMPDEST SWAP1 DUP2 MSTORE PUSH1 0x40 MLOAD SWAP1 DUP2 SWAP1 SUB PUSH1 0x20 ADD DUP2 KECCAK256 DUP1 SLOAD SWAP3 ISZERO ISZERO PUSH1 0xFF NOT SWAP1 SWAP4 AND SWAP3 SWAP1 SWAP3 OR SWAP1 SWAP2 SSTORE DUP4 SWAP1 PUSH1 0x2 SWAP1 PUSH2 0x1CC4 SWAP1 DUP9 SWAP1 DUP9 SWAP1 PUSH2 0x2B2A JUMP JUMPDEST SWAP1 DUP2 MSTORE PUSH1 0x20 ADD PUSH1 0x40 MLOAD DUP1 SWAP2 SUB SWAP1 KECCAK256 PUSH1 0x1 ADD DUP2 SWAP1 SSTORE POP DUP2 PUSH1 0x2 DUP7 DUP7 PUSH1 0x40 MLOAD PUSH2 0x1CEC SWAP3 SWAP2 SWAP1 PUSH2 0x2B2A JUMP JUMPDEST SWAP1 DUP2 MSTORE PUSH1 0x20 ADD PUSH1 0x40 MLOAD DUP1 SWAP2 SUB SWAP1 KECCAK256 PUSH1 0x2 ADD DUP2 SWAP1 SSTORE POP DUP1 PUSH1 0x2 DUP7 DUP7 PUSH1 0x40 MLOAD PUSH2 0x1D14 SWAP3 SWAP2 SWAP1 PUSH2 0x2B2A JUMP JUMPDEST SWAP1 DUP2 MSTORE PUSH1 0x40 MLOAD SWAP1 DUP2 SWAP1 SUB PUSH1 0x20 ADD SWAP1 KECCAK256 PUSH1 0x3 ADD SSTORE POP POP POP POP POP JUMP JUMPDEST CALLER PUSH2 0x1D37 PUSH2 0x16F2 JUMP JUMPDEST PUSH1 0x1 PUSH1 0x1 PUSH1 0xA0 SHL SUB AND EQ PUSH2 0x1D5D JUMPI PUSH1 0x40 MLOAD PUSH3 0x461BCD PUSH1 0xE5 SHL DUP2 MSTORE PUSH1 0x4 ADD PUSH2 0x42D SWAP1 PUSH2 0x2E35 JUMP JUMPDEST PUSH1 0x3 DUP1 SLOAD PUSH1 0xFF PUSH1 0xA8 SHL NOT AND SWAP1 SSTORE PUSH2 0x1D76 PUSH1 0x4 DUP4 DUP4 PUSH2 0x2445 JUMP JUMPDEST POP PUSH32 0xBBED56C796999EC9481DE9169E54D6F193C57A335189C8B82053D80E263FDBD6 DUP3 DUP3 PUSH1 0x40 MLOAD PUSH2 0x1DA8 SWAP3 SWAP2 SWAP1 PUSH2 0x2BB8 JUMP JUMPDEST PUSH1 0x40 MLOAD DUP1 SWAP2 SUB SWAP1 LOG1 POP POP JUMP JUMPDEST CALLER PUSH2 0x1DBD PUSH2 0x16F2 JUMP JUMPDEST PUSH1 0x1 PUSH1 0x1 PUSH1 0xA0 SHL SUB AND EQ PUSH2 0x1DE3 JUMPI PUSH1 0x40 MLOAD PUSH3 0x461BCD PUSH1 0xE5 SHL DUP2 MSTORE PUSH1 0x4 ADD PUSH2 0x42D SWAP1 PUSH2 0x2E35 JUMP JUMPDEST PUSH1 0x1 PUSH1 0x1 PUSH1 0xA0 SHL SUB DUP2 AND PUSH2 0x1E48 JUMPI PUSH1 0x40 MLOAD PUSH3 0x461BCD PUSH1 0xE5 SHL DUP2 MSTORE PUSH1 0x20 PUSH1 0x4 DUP3 ADD MSTORE PUSH1 0x26 PUSH1 0x24 DUP3 ADD MSTORE PUSH32 0x4F776E61626C653A206E6577206F776E657220697320746865207A65726F2061 PUSH1 0x44 DUP3 ADD MSTORE PUSH6 0x646472657373 PUSH1 0xD0 SHL PUSH1 0x64 DUP3 ADD MSTORE PUSH1 0x84 ADD PUSH2 0x42D JUMP JUMPDEST PUSH2 0x1E51 DUP2 PUSH2 0x1E54 JUMP JUMPDEST POP JUMP JUMPDEST PUSH1 0x0 DUP1 SLOAD PUSH1 0x1 PUSH1 0x1 PUSH1 0xA0 SHL SUB DUP4 DUP2 AND PUSH1 0x1 PUSH1 0x1 PUSH1 0xA0 SHL SUB NOT DUP4 AND DUP2 OR DUP5 SSTORE PUSH1 0x40 MLOAD SWAP2 SWAP1 SWAP3 AND SWAP3 DUP4 SWAP2 PUSH32 0x8BE0079C531659141344CD1FD0A4F28419497F9722A3DAAFE3B4186F6B6457E0 SWAP2 SWAP1 LOG3 POP POP JUMP JUMPDEST DUP8 SLOAD PUSH1 0x1 DUP2 DUP2 ADD DUP11 SSTORE PUSH1 0x0 DUP11 DUP2 MSTORE PUSH1 0x20 DUP1 DUP3 KECCAK256 SWAP1 SWAP4 ADD DUP11 SWAP1 SSTORE DUP2 DUP12 ADD DUP1 SLOAD DUP1 DUP5 ADD DUP3 SSTORE SWAP1 DUP3 MSTORE DUP4 DUP3 KECCAK256 ADD DUP1 SLOAD PUSH1 0x1 PUSH1 0x1 PUSH1 0xA0 SHL SUB NOT AND CALLER OR SWAP1 SSTORE PUSH1 0x2 DUP12 ADD DUP1 SLOAD SWAP3 DUP4 ADD DUP2 SSTORE DUP2 MSTORE SWAP2 DUP3 KECCAK256 PUSH2 0x1EFA SWAP2 ADD DUP9 DUP9 PUSH2 0x2445 JUMP JUMPDEST POP PUSH1 0x3 DUP10 ADD DUP1 SLOAD PUSH1 0x1 DUP2 ADD DUP3 SSTORE PUSH1 0x0 SWAP2 DUP3 MSTORE PUSH1 0x20 SWAP1 SWAP2 KECCAK256 PUSH2 0x1F1D SWAP2 ADD DUP7 DUP7 PUSH2 0x2445 JUMP JUMPDEST POP PUSH1 0x4 DUP10 ADD DUP1 SLOAD PUSH1 0x1 DUP2 ADD DUP3 SSTORE PUSH1 0x0 SWAP2 DUP3 MSTORE PUSH1 0x20 SWAP1 SWAP2 KECCAK256 PUSH2 0x1F40 SWAP2 ADD DUP5 DUP5 PUSH2 0x2445 JUMP JUMPDEST POP DUP8 DUP10 PUSH1 0x5 ADD PUSH1 0x0 DUP3 DUP3 SLOAD PUSH2 0x1F55 SWAP2 SWAP1 PUSH2 0x2EEF JUMP JUMPDEST SWAP1 SWAP2 SSTORE POP POP POP PUSH1 0x5 DUP9 ADD SLOAD SWAP9 SWAP8 POP POP POP POP POP POP POP POP JUMP JUMPDEST PUSH1 0x6 DUP3 ADD SLOAD DUP3 SLOAD PUSH1 0x0 SWAP2 PUSH2 0x1F7F SWAP2 PUSH2 0x2F46 JUMP JUMPDEST SWAP1 POP PUSH1 0x0 DUP3 PUSH4 0xFFFFFFFF AND DUP3 GT PUSH2 0x1F96 JUMPI DUP2 PUSH2 0x1F9E JUMP JUMPDEST DUP3 PUSH4 0xFFFFFFFF AND JUMPDEST SWAP1 POP PUSH1 0x0 DUP2 DUP6 PUSH1 0x6 ADD SLOAD PUSH2 0x1FB2 SWAP2 SWAP1 PUSH2 0x2EEF JUMP JUMPDEST PUSH1 0x6 DUP7 ADD SLOAD SWAP1 SWAP2 POP JUMPDEST DUP2 DUP2 LT ISZERO PUSH2 0x2116 JUMPI PUSH2 0x2033 DUP7 PUSH1 0x1 ADD DUP3 DUP2 SLOAD DUP2 LT PUSH2 0x1FE9 JUMPI PUSH4 0x4E487B71 PUSH1 0xE0 SHL PUSH1 0x0 MSTORE PUSH1 0x32 PUSH1 0x4 MSTORE PUSH1 0x24 PUSH1 0x0 REVERT JUMPDEST PUSH1 0x0 SWAP2 DUP3 MSTORE PUSH1 0x20 SWAP1 SWAP2 KECCAK256 ADD SLOAD DUP8 SLOAD PUSH1 0x1 PUSH1 0x1 PUSH1 0xA0 SHL SUB SWAP1 SWAP2 AND SWAP1 DUP9 SWAP1 DUP5 SWAP1 DUP2 LT PUSH2 0x2023 JUMPI PUSH4 0x4E487B71 PUSH1 0xE0 SHL PUSH1 0x0 MSTORE PUSH1 0x32 PUSH1 0x4 MSTORE PUSH1 0x24 PUSH1 0x0 REVERT JUMPDEST SWAP1 PUSH1 0x0 MSTORE PUSH1 0x20 PUSH1 0x0 KECCAK256 ADD SLOAD PUSH2 0x231D JUMP JUMPDEST PUSH32 0xB9B3CF88E16DDD6B941FFA04B763047AF17BAFD3CDECEF4D26D46F43E64C1205 DUP9 DUP9 DUP9 PUSH1 0x1 ADD DUP5 DUP2 SLOAD DUP2 LT PUSH2 0x2079 JUMPI PUSH4 0x4E487B71 PUSH1 0xE0 SHL PUSH1 0x0 MSTORE PUSH1 0x32 PUSH1 0x4 MSTORE PUSH1 0x24 PUSH1 0x0 REVERT JUMPDEST PUSH1 0x0 SWAP2 DUP3 MSTORE PUSH1 0x20 SWAP1 SWAP2 KECCAK256 ADD SLOAD DUP10 SLOAD PUSH1 0x1 PUSH1 0x1 PUSH1 0xA0 SHL SUB SWAP1 SWAP2 AND SWAP1 DUP11 SWAP1 DUP7 SWAP1 DUP2 LT PUSH2 0x20B3 JUMPI PUSH4 0x4E487B71 PUSH1 0xE0 SHL PUSH1 0x0 MSTORE PUSH1 0x32 PUSH1 0x4 MSTORE PUSH1 0x24 PUSH1 0x0 REVERT JUMPDEST SWAP1 PUSH1 0x0 MSTORE PUSH1 0x20 PUSH1 0x0 KECCAK256 ADD SLOAD DUP11 PUSH1 0x4 ADD DUP7 DUP2 SLOAD DUP2 LT PUSH2 0x20E1 JUMPI PUSH4 0x4E487B71 PUSH1 0xE0 SHL PUSH1 0x0 MSTORE PUSH1 0x32 PUSH1 0x4 MSTORE PUSH1 0x24 PUSH1 0x0 REVERT JUMPDEST SWAP1 PUSH1 0x0 MSTORE PUSH1 0x20 PUSH1 0x0 KECCAK256 ADD PUSH1 0x40 MLOAD PUSH2 0x20FC SWAP6 SWAP5 SWAP4 SWAP3 SWAP2 SWAP1 PUSH2 0x2C70 JUMP JUMPDEST PUSH1 0x40 MLOAD DUP1 SWAP2 SUB SWAP1 LOG1 DUP1 PUSH2 0x210E DUP2 PUSH2 0x2F98 JUMP JUMPDEST SWAP2 POP POP PUSH2 0x1FBB JUMP JUMPDEST POP PUSH1 0x6 SWAP1 SWAP5 ADD SWAP4 SWAP1 SWAP4 SSTORE POP POP POP POP POP JUMP JUMPDEST PUSH1 0x2 DUP3 DUP3 PUSH1 0x40 MLOAD PUSH2 0x2139 SWAP3 SWAP2 SWAP1 PUSH2 0x2B2A JUMP JUMPDEST SWAP1 DUP2 MSTORE PUSH1 0x40 MLOAD SWAP1 DUP2 SWAP1 SUB PUSH1 0x20 ADD SWAP1 KECCAK256 PUSH1 0x4 ADD PUSH1 0x0 PUSH2 0x2157 DUP3 DUP3 PUSH2 0x24B9 JUMP JUMPDEST PUSH2 0x2165 PUSH1 0x1 DUP4 ADD PUSH1 0x0 PUSH2 0x24B9 JUMP JUMPDEST PUSH2 0x2173 PUSH1 0x2 DUP4 ADD PUSH1 0x0 PUSH2 0x24D7 JUMP JUMPDEST PUSH2 0x2181 PUSH1 0x3 DUP4 ADD PUSH1 0x0 PUSH2 0x24D7 JUMP JUMPDEST PUSH2 0x218F PUSH1 0x4 DUP4 ADD PUSH1 0x0 PUSH2 0x24D7 JUMP JUMPDEST PUSH1 0x5 DUP3 ADD PUSH1 0x0 SWAP1 SSTORE PUSH1 0x6 DUP3 ADD PUSH1 0x0 SWAP1 SSTORE PUSH1 0x7 DUP3 ADD PUSH1 0x0 SWAP1 SSTORE POP POP PUSH1 0x2 DUP3 DUP3 PUSH1 0x40 MLOAD PUSH2 0x21BB SWAP3 SWAP2 SWAP1 PUSH2 0x2B2A JUMP JUMPDEST SWAP1 DUP2 MSTORE PUSH1 0x40 MLOAD SWAP1 DUP2 SWAP1 SUB PUSH1 0x20 ADD SWAP1 KECCAK256 PUSH1 0xC ADD PUSH1 0x0 PUSH2 0x21D9 DUP3 DUP3 PUSH2 0x24B9 JUMP JUMPDEST PUSH2 0x21E7 PUSH1 0x1 DUP4 ADD PUSH1 0x0 PUSH2 0x24B9 JUMP JUMPDEST PUSH2 0x21F5 PUSH1 0x2 DUP4 ADD PUSH1 0x0 PUSH2 0x24D7 JUMP JUMPDEST PUSH2 0x2203 PUSH1 0x3 DUP4 ADD PUSH1 0x0 PUSH2 0x24D7 JUMP JUMPDEST PUSH2 0x2211 PUSH1 0x4 DUP4 ADD PUSH1 0x0 PUSH2 0x24D7 JUMP JUMPDEST PUSH1 0x5 DUP3 ADD PUSH1 0x0 SWAP1 SSTORE PUSH1 0x6 DUP3 ADD PUSH1 0x0 SWAP1 SSTORE PUSH1 0x7 DUP3 ADD PUSH1 0x0 SWAP1 SSTORE POP POP PUSH1 0x2 DUP3 DUP3 PUSH1 0x40 MLOAD PUSH2 0x223D SWAP3 SWAP2 SWAP1 PUSH2 0x2B2A JUMP JUMPDEST SWAP1 DUP2 MSTORE PUSH1 0x40 MLOAD SWAP1 DUP2 SWAP1 SUB PUSH1 0x20 ADD DUP2 KECCAK256 DUP1 SLOAD PUSH5 0xFFFFFFFF00 NOT AND SWAP1 SSTORE PUSH1 0x2 SWAP1 PUSH2 0x2268 SWAP1 DUP5 SWAP1 DUP5 SWAP1 PUSH2 0x2B2A JUMP JUMPDEST SWAP1 DUP2 MSTORE PUSH1 0x40 MLOAD SWAP1 DUP2 SWAP1 SUB PUSH1 0x20 ADD SWAP1 KECCAK256 DUP1 SLOAD PUSH4 0xFFFFFFFF PUSH1 0x28 SHL NOT AND SWAP1 SSTORE POP POP JUMP JUMPDEST PUSH2 0x22AD PUSH1 0x40 MLOAD DUP1 PUSH1 0x60 ADD PUSH1 0x40 MSTORE DUP1 PUSH1 0x0 DUP2 MSTORE PUSH1 0x20 ADD PUSH1 0x0 DUP2 MSTORE PUSH1 0x20 ADD PUSH1 0x0 DUP2 MSTORE POP SWAP1 JUMP JUMPDEST PUSH1 0x5 DUP3 ADD SLOAD PUSH1 0x3 SLOAD PUSH1 0x0 SWAP2 PUSH1 0x64 SWAP2 PUSH2 0x22C8 SWAP2 SWAP1 PUSH1 0xFF AND PUSH2 0x2F27 JUMP JUMPDEST PUSH2 0x22D2 SWAP2 SWAP1 PUSH2 0x2F07 JUMP JUMPDEST PUSH1 0x6 DUP6 ADD SLOAD DUP6 SLOAD SWAP2 SWAP3 POP PUSH1 0x0 SWAP2 PUSH2 0x22E9 SWAP2 SWAP1 PUSH2 0x2F46 JUMP JUMPDEST SWAP1 POP PUSH1 0x40 MLOAD DUP1 PUSH1 0x60 ADD PUSH1 0x40 MSTORE DUP1 DUP4 DUP2 MSTORE PUSH1 0x20 ADD DUP4 DUP7 PUSH1 0x5 ADD SLOAD PUSH2 0x230C SWAP2 SWAP1 PUSH2 0x2F46 JUMP JUMPDEST DUP2 MSTORE PUSH1 0x20 ADD SWAP2 SWAP1 SWAP2 MSTORE SWAP5 SWAP4 POP POP POP POP JUMP JUMPDEST PUSH1 0x0 DUP1 DUP4 PUSH1 0x1 PUSH1 0x1 PUSH1 0xA0 SHL SUB AND PUSH1 0x0 DUP5 PUSH1 0x40 MLOAD PUSH1 0x0 PUSH1 0x40 MLOAD DUP1 DUP4 SUB DUP2 DUP6 DUP9 DUP9 CALL SWAP4 POP POP POP POP RETURNDATASIZE DUP1 PUSH1 0x0 DUP2 EQ PUSH2 0x236E JUMPI PUSH1 0x40 MLOAD SWAP2 POP PUSH1 0x1F NOT PUSH1 0x3F RETURNDATASIZE ADD AND DUP3 ADD PUSH1 0x40 MSTORE RETURNDATASIZE DUP3 MSTORE RETURNDATASIZE PUSH1 0x0 PUSH1 0x20 DUP5 ADD RETURNDATACOPY PUSH2 0x2373 JUMP JUMPDEST PUSH1 0x60 SWAP2 POP JUMPDEST POP SWAP2 POP SWAP2 POP DUP2 PUSH2 0x23BB JUMPI PUSH1 0x40 MLOAD PUSH3 0x461BCD PUSH1 0xE5 SHL DUP2 MSTORE PUSH1 0x20 PUSH1 0x4 DUP3 ADD MSTORE PUSH1 0x13 PUSH1 0x24 DUP3 ADD MSTORE PUSH19 0x21B7BAB6323713BA1039B2B7321032BA3432B9 PUSH1 0x69 SHL PUSH1 0x44 DUP3 ADD MSTORE PUSH1 0x64 ADD PUSH2 0x42D JUMP JUMPDEST POP POP POP POP JUMP JUMPDEST DUP3 DUP1 SLOAD PUSH2 0x23CD SWAP1 PUSH2 0x2F5D JUMP JUMPDEST SWAP1 PUSH1 0x0 MSTORE PUSH1 0x20 PUSH1 0x0 KECCAK256 SWAP1 PUSH1 0x1F ADD PUSH1 0x20 SWAP1 DIV DUP2 ADD SWAP3 DUP3 PUSH2 0x23EF JUMPI PUSH1 0x0 DUP6 SSTORE PUSH2 0x2435 JUMP JUMPDEST DUP3 PUSH1 0x1F LT PUSH2 0x2408 JUMPI DUP1 MLOAD PUSH1 0xFF NOT AND DUP4 DUP1 ADD OR DUP6 SSTORE PUSH2 0x2435 JUMP JUMPDEST DUP3 DUP1 ADD PUSH1 0x1 ADD DUP6 SSTORE DUP3 ISZERO PUSH2 0x2435 JUMPI SWAP2 DUP3 ADD JUMPDEST DUP3 DUP2 GT ISZERO PUSH2 0x2435 JUMPI DUP3 MLOAD DUP3 SSTORE SWAP2 PUSH1 0x20 ADD SWAP2 SWAP1 PUSH1 0x1 ADD SWAP1 PUSH2 0x241A JUMP JUMPDEST POP PUSH2 0x2441 SWAP3 SWAP2 POP PUSH2 0x24F5 JUMP JUMPDEST POP SWAP1 JUMP JUMPDEST DUP3 DUP1 SLOAD PUSH2 0x2451 SWAP1 PUSH2 0x2F5D JUMP JUMPDEST SWAP1 PUSH1 0x0 MSTORE PUSH1 0x20 PUSH1 0x0 KECCAK256 SWAP1 PUSH1 0x1F ADD PUSH1 0x20 SWAP1 DIV DUP2 ADD SWAP3 DUP3 PUSH2 0x2473 JUMPI PUSH1 0x0 DUP6 SSTORE PUSH2 0x2435 JUMP JUMPDEST DUP3 PUSH1 0x1F LT PUSH2 0x248C JUMPI DUP3 DUP1 ADD PUSH1 0xFF NOT DUP3 CALLDATALOAD AND OR DUP6 SSTORE PUSH2 0x2435 JUMP JUMPDEST DUP3 DUP1 ADD PUSH1 0x1 ADD DUP6 SSTORE DUP3 ISZERO PUSH2 0x2435 JUMPI SWAP2 DUP3 ADD JUMPDEST DUP3 DUP2 GT ISZERO PUSH2 0x2435 JUMPI DUP3 CALLDATALOAD DUP3 SSTORE SWAP2 PUSH1 0x20 ADD SWAP2 SWAP1 PUSH1 0x1 ADD SWAP1 PUSH2 0x249E JUMP JUMPDEST POP DUP1 SLOAD PUSH1 0x0 DUP3 SSTORE SWAP1 PUSH1 0x0 MSTORE PUSH1 0x20 PUSH1 0x0 KECCAK256 SWAP1 DUP2 ADD SWAP1 PUSH2 0x1E51 SWAP2 SWAP1 PUSH2 0x24F5 JUMP JUMPDEST POP DUP1 SLOAD PUSH1 0x0 DUP3 SSTORE SWAP1 PUSH1 0x0 MSTORE PUSH1 0x20 PUSH1 0x0 KECCAK256 SWAP1 DUP2 ADD SWAP1 PUSH2 0x1E51 SWAP2 SWAP1 PUSH2 0x250A JUMP JUMPDEST JUMPDEST DUP1 DUP3 GT ISZERO PUSH2 0x2441 JUMPI PUSH1 0x0 DUP2 SSTORE PUSH1 0x1 ADD PUSH2 0x24F6 JUMP JUMPDEST DUP1 DUP3 GT ISZERO PUSH2 0x2441 JUMPI PUSH1 0x0 PUSH2 0x251E DUP3 DUP3 PUSH2 0x2527 JUMP JUMPDEST POP PUSH1 0x1 ADD PUSH2 0x250A JUMP JUMPDEST POP DUP1 SLOAD PUSH2 0x2533 SWAP1 PUSH2 0x2F5D JUMP JUMPDEST PUSH1 0x0 DUP3 SSTORE DUP1 PUSH1 0x1F LT PUSH2 0x2543 JUMPI POP POP JUMP JUMPDEST PUSH1 0x1F ADD PUSH1 0x20 SWAP1 DIV SWAP1 PUSH1 0x0 MSTORE PUSH1 0x20 PUSH1 0x0 KECCAK256 SWAP1 DUP2 ADD SWAP1 PUSH2 0x1E51 SWAP2 SWAP1 PUSH2 0x24F5 JUMP JUMPDEST PUSH1 0x0 DUP1 DUP4 PUSH1 0x1F DUP5 ADD SLT PUSH2 0x2572 JUMPI DUP1 DUP2 REVERT JUMPDEST POP DUP2 CALLDATALOAD PUSH1 0x1 PUSH1 0x1 PUSH1 0x40 SHL SUB DUP2 GT ISZERO PUSH2 0x2588 JUMPI DUP2 DUP3 REVERT JUMPDEST PUSH1 0x20 DUP4 ADD SWAP2 POP DUP4 PUSH1 0x20 DUP3 DUP6 ADD ADD GT ISZERO PUSH2 0x25A0 JUMPI PUSH1 0x0 DUP1 REVERT JUMPDEST SWAP3 POP SWAP3 SWAP1 POP JUMP JUMPDEST DUP1 CALLDATALOAD PUSH1 0x7 DUP2 SWAP1 SIGNEXTEND DUP2 EQ PUSH2 0x25B9 JUMPI PUSH1 0x0 DUP1 REVERT JUMPDEST SWAP2 SWAP1 POP JUMP JUMPDEST DUP1 CALLDATALOAD PUSH4 0xFFFFFFFF DUP2 AND DUP2 EQ PUSH2 0x25B9 JUMPI PUSH1 0x0 DUP1 REVERT JUMPDEST PUSH1 0x0 PUSH1 0x20 DUP3 DUP5 SUB SLT ISZERO PUSH2 0x25E3 JUMPI DUP1 DUP2 REVERT JUMPDEST DUP2 CALLDATALOAD PUSH1 0x1 PUSH1 0x1 PUSH1 0xA0 SHL SUB DUP2 AND DUP2 EQ PUSH2 0x25F9 JUMPI DUP2 DUP3 REVERT JUMPDEST SWAP4 SWAP3 POP POP POP JUMP JUMPDEST PUSH1 0x0 PUSH1 0x20 DUP3 DUP5 SUB SLT ISZERO PUSH2 0x2611 JUMPI DUP1 DUP2 REVERT JUMPDEST DUP2 CALLDATALOAD DUP1 ISZERO ISZERO DUP2 EQ PUSH2 0x25F9 JUMPI DUP2 DUP3 REVERT JUMPDEST PUSH1 0x0 DUP1 PUSH1 0x20 DUP4 DUP6 SUB SLT ISZERO PUSH2 0x2632 JUMPI DUP1 DUP2 REVERT JUMPDEST DUP3 CALLDATALOAD PUSH1 0x1 PUSH1 0x1 PUSH1 0x40 SHL SUB DUP2 GT ISZERO PUSH2 0x2647 JUMPI DUP2 DUP3 REVERT JUMPDEST PUSH2 0x2653 DUP6 DUP3 DUP7 ADD PUSH2 0x2561 JUMP JUMPDEST SWAP1 SWAP7 SWAP1 SWAP6 POP SWAP4 POP POP POP POP JUMP JUMPDEST PUSH1 0x0 DUP1 PUSH1 0x0 DUP1 PUSH1 0x0 DUP1 PUSH1 0x0 PUSH1 0xC0 DUP9 DUP11 SUB SLT ISZERO PUSH2 0x2679 JUMPI DUP3 DUP4 REVERT JUMPDEST DUP8 CALLDATALOAD PUSH1 0x1 PUSH1 0x1 PUSH1 0x40 SHL SUB DUP2 GT ISZERO PUSH2 0x268E JUMPI DUP4 DUP5 REVERT JUMPDEST PUSH2 0x269A DUP11 DUP3 DUP12 ADD PUSH2 0x2561 JUMP JUMPDEST SWAP1 SWAP9 POP SWAP7 POP PUSH2 0x26AD SWAP1 POP PUSH1 0x20 DUP10 ADD PUSH2 0x25A7 JUMP JUMPDEST SWAP5 POP PUSH1 0x40 DUP9 ADD CALLDATALOAD SWAP4 POP PUSH1 0x60 DUP9 ADD CALLDATALOAD SWAP3 POP PUSH1 0x80 DUP9 ADD CALLDATALOAD DUP1 PUSH1 0x3 SIGNEXTEND DUP2 EQ PUSH2 0x26D0 JUMPI DUP3 DUP4 REVERT JUMPDEST SWAP2 POP PUSH2 0x26DE PUSH1 0xA0 DUP10 ADD PUSH2 0x25BE JUMP JUMPDEST SWAP1 POP SWAP3 SWAP6 SWAP9 SWAP2 SWAP5 SWAP8 POP SWAP3 SWAP6 POP JUMP JUMPDEST PUSH1 0x0 DUP1 PUSH1 0x0 DUP1 PUSH1 0x0 PUSH1 0x80 DUP7 DUP9 SUB SLT ISZERO PUSH2 0x2703 JUMPI DUP1 DUP2 REVERT JUMPDEST DUP6 CALLDATALOAD PUSH1 0x1 PUSH1 0x1 PUSH1 0x40 SHL SUB DUP2 GT ISZERO PUSH2 0x2718 JUMPI DUP2 DUP3 REVERT JUMPDEST PUSH2 0x2724 DUP9 DUP3 DUP10 ADD PUSH2 0x2561 JUMP JUMPDEST SWAP1 SWAP10 SWAP1 SWAP9 POP PUSH1 0x20 DUP9 ADD CALLDATALOAD SWAP8 PUSH1 0x40 DUP2 ADD CALLDATALOAD SWAP8 POP PUSH1 0x60 ADD CALLDATALOAD SWAP6 POP SWAP4 POP POP POP POP JUMP JUMPDEST PUSH1 0x0 DUP1 PUSH1 0x0 DUP1 PUSH1 0x60 DUP6 DUP8 SUB SLT ISZERO PUSH2 0x2758 JUMPI DUP4 DUP5 REVERT JUMPDEST DUP5 CALLDATALOAD PUSH1 0x1 PUSH1 0x1 PUSH1 0x40 SHL SUB DUP2 GT ISZERO PUSH2 0x276D JUMPI DUP5 DUP6 REVERT JUMPDEST PUSH2 0x2779 DUP8 DUP3 DUP9 ADD PUSH2 0x2561 JUMP JUMPDEST SWAP1 SWAP6 POP SWAP4 POP PUSH2 0x278C SWAP1 POP PUSH1 0x20 DUP7 ADD PUSH2 0x25BE JUMP JUMPDEST SWAP2 POP PUSH2 0x279A PUSH1 0x40 DUP7 ADD PUSH2 0x25A7 JUMP JUMPDEST SWAP1 POP SWAP3 SWAP6 SWAP2 SWAP5 POP SWAP3 POP JUMP JUMPDEST PUSH1 0x0 PUSH1 0x20 DUP3 DUP5 SUB SLT ISZERO PUSH2 0x27B6 JUMPI DUP1 DUP2 REVERT JUMPDEST DUP2 CALLDATALOAD PUSH1 0x1 PUSH1 0x1 PUSH1 0x40 SHL SUB DUP1 DUP3 GT ISZERO PUSH2 0x27CC JUMPI DUP3 DUP4 REVERT JUMPDEST DUP2 DUP5 ADD SWAP2 POP DUP5 PUSH1 0x1F DUP4 ADD SLT PUSH2 0x27DF JUMPI DUP3 DUP4 REVERT JUMPDEST DUP2 CALLDATALOAD DUP2 DUP2 GT ISZERO PUSH2 0x27F1 JUMPI PUSH2 0x27F1 PUSH2 0x2FC9 JUMP JUMPDEST PUSH1 0x40 MLOAD PUSH1 0x1F DUP3 ADD PUSH1 0x1F NOT SWAP1 DUP2 AND PUSH1 0x3F ADD AND DUP2 ADD SWAP1 DUP4 DUP3 GT DUP2 DUP4 LT OR ISZERO PUSH2 0x2819 JUMPI PUSH2 0x2819 PUSH2 0x2FC9 JUMP JUMPDEST DUP2 PUSH1 0x40 MSTORE DUP3 DUP2 MSTORE DUP8 PUSH1 0x20 DUP5 DUP8 ADD ADD GT ISZERO PUSH2 0x2831 JUMPI DUP6 DUP7 REVERT JUMPDEST DUP3 PUSH1 0x20 DUP7 ADD PUSH1 0x20 DUP4 ADD CALLDATACOPY SWAP2 DUP3 ADD PUSH1 0x20 ADD SWAP5 SWAP1 SWAP5 MSTORE SWAP6 SWAP5 POP POP POP POP POP JUMP JUMPDEST PUSH1 0x0 PUSH1 0x20 DUP3 DUP5 SUB SLT ISZERO PUSH2 0x285F JUMPI DUP1 DUP2 REVERT JUMPDEST DUP2 CALLDATALOAD PUSH1 0x1 PUSH1 0x1 PUSH1 0x40 SHL SUB DUP2 GT ISZERO PUSH2 0x2874 JUMPI DUP2 DUP3 REVERT JUMPDEST DUP3 ADD PUSH1 0xA0 DUP2 DUP6 SUB SLT ISZERO PUSH2 0x25F9 JUMPI DUP2 DUP3 REVERT JUMPDEST PUSH1 0x0 PUSH1 0x20 DUP3 DUP5 SUB SLT ISZERO PUSH2 0x2896 JUMPI DUP1 DUP2 REVERT JUMPDEST DUP2 CALLDATALOAD PUSH1 0xFF DUP2 AND DUP2 EQ PUSH2 0x25F9 JUMPI DUP2 DUP3 REVERT JUMPDEST PUSH1 0x0 DUP2 MLOAD DUP1 DUP5 MSTORE PUSH1 0x20 DUP1 DUP6 ADD SWAP5 POP DUP1 DUP5 ADD DUP4 JUMPDEST DUP4 DUP2 LT ISZERO PUSH2 0x28DE JUMPI DUP2 MLOAD PUSH1 0x1 PUSH1 0x1 PUSH1 0xA0 SHL SUB AND DUP8 MSTORE SWAP6 DUP3 ADD SWAP6 SWAP1 DUP3 ADD SWAP1 PUSH1 0x1 ADD PUSH2 0x28B9 JUMP JUMPDEST POP SWAP5 SWAP6 SWAP5 POP POP POP POP POP JUMP JUMPDEST PUSH1 0x0 DUP3 DUP3 MLOAD DUP1 DUP6 MSTORE PUSH1 0x20 DUP1 DUP7 ADD SWAP6 POP DUP1 DUP3 PUSH1 0x5 SHL DUP5 ADD ADD DUP2 DUP7 ADD DUP6 JUMPDEST DUP5 DUP2 LT ISZERO PUSH2 0x2933 JUMPI PUSH1 0x1F NOT DUP7 DUP5 SUB ADD DUP10 MSTORE PUSH2 0x2921 DUP4 DUP4 MLOAD PUSH2 0x2998 JUMP JUMPDEST SWAP9 DUP5 ADD SWAP9 SWAP3 POP SWAP1 DUP4 ADD SWAP1 PUSH1 0x1 ADD PUSH2 0x2905 JUMP JUMPDEST POP SWAP1 SWAP8 SWAP7 POP POP POP POP POP POP POP JUMP JUMPDEST PUSH1 0x0 DUP2 MLOAD DUP1 DUP5 MSTORE PUSH1 0x20 DUP1 DUP6 ADD SWAP5 POP DUP1 DUP5 ADD DUP4 JUMPDEST DUP4 DUP2 LT ISZERO PUSH2 0x28DE JUMPI DUP2 MLOAD DUP8 MSTORE SWAP6 DUP3 ADD SWAP6 SWAP1 DUP3 ADD SWAP1 PUSH1 0x1 ADD PUSH2 0x2953 JUMP JUMPDEST DUP2 DUP4 MSTORE DUP2 DUP2 PUSH1 0x20 DUP6 ADD CALLDATACOPY POP PUSH1 0x0 DUP3 DUP3 ADD PUSH1 0x20 SWAP1 DUP2 ADD SWAP2 SWAP1 SWAP2 MSTORE PUSH1 0x1F SWAP1 SWAP2 ADD PUSH1 0x1F NOT AND SWAP1 SWAP2 ADD ADD SWAP1 JUMP JUMPDEST PUSH1 0x0 DUP2 MLOAD DUP1 DUP5 MSTORE DUP2 JUMPDEST DUP2 DUP2 LT ISZERO PUSH2 0x29BD JUMPI PUSH1 0x20 DUP2 DUP6 ADD DUP2 ADD MLOAD DUP7 DUP4 ADD DUP3 ADD MSTORE ADD PUSH2 0x29A1 JUMP JUMPDEST DUP2 DUP2 GT ISZERO PUSH2 0x29CE JUMPI DUP3 PUSH1 0x20 DUP4 DUP8 ADD ADD MSTORE JUMPDEST POP PUSH1 0x1F ADD PUSH1 0x1F NOT AND SWAP3 SWAP1 SWAP3 ADD PUSH1 0x20 ADD SWAP3 SWAP2 POP POP JUMP JUMPDEST DUP1 SLOAD PUSH1 0x0 SWAP1 PUSH1 0x1 DUP2 DUP2 SHR SWAP1 DUP1 DUP4 AND DUP1 PUSH2 0x29FD JUMPI PUSH1 0x7F DUP4 AND SWAP3 POP JUMPDEST PUSH1 0x20 DUP1 DUP5 LT DUP3 EQ ISZERO PUSH2 0x2A1D JUMPI PUSH4 0x4E487B71 PUSH1 0xE0 SHL DUP7 MSTORE PUSH1 0x22 PUSH1 0x4 MSTORE PUSH1 0x24 DUP7 REVERT JUMPDEST DUP4 DUP9 MSTORE PUSH1 0x20 DUP9 ADD DUP3 DUP1 ISZERO PUSH2 0x2A38 JUMPI PUSH1 0x1 DUP2 EQ PUSH2 0x2A49 JUMPI PUSH2 0x2A74 JUMP JUMPDEST PUSH1 0xFF NOT DUP8 AND DUP3 MSTORE DUP3 DUP3 ADD SWAP8 POP PUSH2 0x2A74 JUMP JUMPDEST PUSH1 0x0 DUP10 DUP2 MSTORE PUSH1 0x20 SWAP1 KECCAK256 PUSH1 0x0 JUMPDEST DUP8 DUP2 LT ISZERO PUSH2 0x2A6E JUMPI DUP2 SLOAD DUP5 DUP3 ADD MSTORE SWAP1 DUP7 ADD SWAP1 DUP5 ADD PUSH2 0x2A55 JUMP JUMPDEST DUP4 ADD SWAP9 POP POP JUMPDEST POP POP POP POP POP POP POP SWAP3 SWAP2 POP POP JUMP JUMPDEST PUSH1 0x0 PUSH2 0x100 DUP3 MLOAD DUP2 DUP6 MSTORE PUSH2 0x2A97 DUP3 DUP7 ADD DUP3 PUSH2 0x2940 JUMP JUMPDEST SWAP2 POP POP PUSH1 0x20 DUP4 ADD MLOAD DUP5 DUP3 SUB PUSH1 0x20 DUP7 ADD MSTORE PUSH2 0x2AB1 DUP3 DUP3 PUSH2 0x28A6 JUMP JUMPDEST SWAP2 POP POP PUSH1 0x40 DUP4 ADD MLOAD DUP5 DUP3 SUB PUSH1 0x40 DUP7 ADD MSTORE PUSH2 0x2ACB DUP3 DUP3 PUSH2 0x28E9 JUMP JUMPDEST SWAP2 POP POP PUSH1 0x60 DUP4 ADD MLOAD DUP5 DUP3 SUB PUSH1 0x60 DUP7 ADD MSTORE PUSH2 0x2AE5 DUP3 DUP3 PUSH2 0x28E9 JUMP JUMPDEST SWAP2 POP POP PUSH1 0x80 DUP4 ADD MLOAD DUP5 DUP3 SUB PUSH1 0x80 DUP7 ADD MSTORE PUSH2 0x2AFF DUP3 DUP3 PUSH2 0x28E9 JUMP JUMPDEST SWAP2 POP POP PUSH1 0xA0 DUP4 ADD MLOAD PUSH1 0xA0 DUP6 ADD MSTORE PUSH1 0xC0 DUP4 ADD MLOAD PUSH1 0xC0 DUP6 ADD MSTORE PUSH1 0xE0 DUP4 ADD MLOAD PUSH1 0xE0 DUP6 ADD MSTORE DUP1 SWAP2 POP POP SWAP3 SWAP2 POP POP JUMP JUMPDEST DUP2 DUP4 DUP3 CALLDATACOPY PUSH1 0x0 SWAP2 ADD SWAP1 DUP2 MSTORE SWAP2 SWAP1 POP JUMP JUMPDEST PUSH1 0x0 PUSH2 0x160 DUP14 ISZERO ISZERO DUP4 MSTORE DUP13 PUSH1 0x3 SIGNEXTEND PUSH1 0x20 DUP5 ADD MSTORE DUP12 PUSH1 0x3 SIGNEXTEND PUSH1 0x40 DUP5 ADD MSTORE DUP11 PUSH1 0x60 DUP5 ADD MSTORE DUP10 PUSH1 0x80 DUP5 ADD MSTORE DUP9 PUSH1 0xA0 DUP5 ADD MSTORE DUP1 PUSH1 0xC0 DUP5 ADD MSTORE PUSH2 0x2B7A DUP2 DUP5 ADD DUP10 PUSH2 0x2A81 JUMP JUMPDEST SWAP1 POP DUP3 DUP2 SUB PUSH1 0xE0 DUP5 ADD MSTORE PUSH2 0x2B8E DUP2 DUP9 PUSH2 0x2A81 JUMP JUMPDEST PUSH1 0x7 SWAP7 SWAP1 SWAP7 SIGNEXTEND PUSH2 0x100 DUP5 ADD MSTORE POP POP PUSH2 0x120 DUP2 ADD SWAP3 SWAP1 SWAP3 MSTORE PUSH2 0x140 SWAP1 SWAP2 ADD MSTORE SWAP9 SWAP8 POP POP POP POP POP POP POP POP JUMP JUMPDEST PUSH1 0x20 DUP2 MSTORE PUSH1 0x0 PUSH2 0x2BCC PUSH1 0x20 DUP4 ADD DUP5 DUP7 PUSH2 0x296F JUMP JUMPDEST SWAP5 SWAP4 POP POP POP POP JUMP JUMPDEST PUSH1 0x0 PUSH2 0x120 DUP1 DUP4 MSTORE PUSH2 0x2BE9 DUP2 DUP5 ADD DUP14 DUP16 PUSH2 0x296F JUMP JUMPDEST PUSH1 0x1 PUSH1 0x1 PUSH1 0xA0 SHL SUB DUP13 AND PUSH1 0x20 DUP6 ADD MSTORE PUSH1 0x40 DUP5 ADD DUP12 SWAP1 MSTORE DUP4 DUP2 SUB PUSH1 0x60 DUP6 ADD MSTORE SWAP1 POP PUSH2 0x2C13 DUP2 DUP11 PUSH2 0x2998 JUMP JUMPDEST SWAP1 POP DUP8 PUSH1 0x80 DUP5 ADD MSTORE DUP3 DUP2 SUB PUSH1 0xA0 DUP5 ADD MSTORE PUSH2 0x2C2D DUP2 DUP9 PUSH2 0x2998 JUMP JUMPDEST SWAP1 POP DUP3 DUP2 SUB PUSH1 0xC0 DUP5 ADD MSTORE PUSH2 0x2C41 DUP2 DUP8 PUSH2 0x2998 JUMP JUMPDEST SWAP1 POP DUP5 PUSH1 0x7 SIGNEXTEND PUSH1 0xE0 DUP5 ADD MSTORE DUP3 DUP2 SUB PUSH2 0x100 DUP5 ADD MSTORE PUSH2 0x2C5F DUP2 DUP6 PUSH2 0x2998 JUMP JUMPDEST SWAP14 SWAP13 POP POP POP POP POP POP POP POP POP POP POP POP POP JUMP JUMPDEST PUSH1 0x80 DUP2 MSTORE PUSH1 0x0 PUSH2 0x2C84 PUSH1 0x80 DUP4 ADD DUP8 DUP10 PUSH2 0x296F JUMP JUMPDEST PUSH1 0x1 PUSH1 0x1 PUSH1 0xA0 SHL SUB DUP7 AND PUSH1 0x20 DUP5 ADD MSTORE PUSH1 0x40 DUP4 ADD DUP6 SWAP1 MSTORE DUP3 DUP2 SUB PUSH1 0x60 DUP5 ADD MSTORE PUSH2 0x2CAC DUP2 DUP6 PUSH2 0x29E3 JUMP JUMPDEST SWAP9 SWAP8 POP POP POP POP POP POP POP POP JUMP JUMPDEST PUSH1 0xA0 DUP2 MSTORE PUSH1 0x0 PUSH2 0x2CCC PUSH1 0xA0 DUP4 ADD DUP9 DUP11 PUSH2 0x296F JUMP JUMPDEST PUSH1 0x1 PUSH1 0x1 PUSH1 0xA0 SHL SUB DUP8 AND PUSH1 0x20 DUP5 ADD MSTORE PUSH1 0x40 DUP4 ADD DUP7 SWAP1 MSTORE PUSH1 0x60 DUP4 ADD DUP6 SWAP1 MSTORE DUP3 DUP2 SUB PUSH1 0x80 DUP5 ADD MSTORE PUSH2 0x2CFB DUP2 DUP6 PUSH2 0x29E3 JUMP JUMPDEST SWAP10 SWAP9 POP POP POP POP POP POP POP POP POP JUMP JUMPDEST PUSH1 0x80 DUP2 MSTORE PUSH1 0x0 PUSH2 0x2D1C PUSH1 0x80 DUP4 ADD DUP8 DUP10 PUSH2 0x296F JUMP JUMPDEST PUSH1 0x7 SWAP6 SWAP1 SWAP6 SIGNEXTEND PUSH1 0x20 DUP4 ADD MSTORE POP PUSH1 0x3 SWAP3 DUP4 SIGNEXTEND PUSH1 0x40 DUP3 ADD MSTORE SWAP2 SIGNEXTEND PUSH1 0x60 SWAP1 SWAP2 ADD MSTORE SWAP3 SWAP2 POP POP JUMP JUMPDEST PUSH1 0xC0 DUP2 MSTORE PUSH1 0x0 PUSH2 0x2D54 PUSH1 0xC0 DUP4 ADD DUP10 DUP12 PUSH2 0x296F JUMP JUMPDEST PUSH1 0x7 SWAP8 SWAP1 SWAP8 SIGNEXTEND PUSH1 0x20 DUP4 ADD MSTORE POP PUSH1 0x3 SWAP5 SWAP1 SWAP5 SIGNEXTEND PUSH1 0x40 DUP6 ADD MSTORE PUSH1 0x60 DUP5 ADD SWAP3 SWAP1 SWAP3 MSTORE PUSH1 0x80 DUP4 ADD MSTORE PUSH1 0xA0 SWAP1 SWAP2 ADD MSTORE SWAP3 SWAP2 POP POP JUMP JUMPDEST PUSH1 0xA0 DUP2 MSTORE PUSH1 0x0 PUSH2 0x2D98 PUSH1 0xA0 DUP4 ADD DUP9 DUP11 PUSH2 0x296F JUMP JUMPDEST SWAP1 POP DUP6 PUSH1 0x20 DUP4 ADD MSTORE DUP5 PUSH1 0x40 DUP4 ADD MSTORE DUP4 PUSH1 0x60 DUP4 ADD MSTORE DUP3 PUSH1 0x7 SIGNEXTEND PUSH1 0x80 DUP4 ADD MSTORE SWAP8 SWAP7 POP POP POP POP POP POP POP JUMP JUMPDEST PUSH1 0x20 DUP2 MSTORE PUSH1 0x0 PUSH2 0x25F9 PUSH1 0x20 DUP4 ADD DUP5 PUSH2 0x2998 JUMP JUMPDEST PUSH1 0x20 DUP1 DUP3 MSTORE DUP2 DUP2 ADD MSTORE PUSH32 0x4F6E6C792067616D6520636F6E74726F6C6C65722063616E20646F2074686973 PUSH1 0x40 DUP3 ADD MSTORE PUSH1 0x60 ADD SWAP1 JUMP JUMPDEST PUSH1 0x20 DUP1 DUP3 MSTORE PUSH1 0x13 SWAP1 DUP3 ADD MSTORE PUSH19 0x141BDBDB08191BD95CC81B9BDD08195E1A5CDD PUSH1 0x6A SHL PUSH1 0x40 DUP3 ADD MSTORE PUSH1 0x60 ADD SWAP1 JUMP JUMPDEST PUSH1 0x20 DUP1 DUP3 MSTORE DUP2 DUP2 ADD MSTORE PUSH32 0x4F776E61626C653A2063616C6C6572206973206E6F7420746865206F776E6572 PUSH1 0x40 DUP3 ADD MSTORE PUSH1 0x60 ADD SWAP1 JUMP JUMPDEST PUSH1 0x20 DUP1 DUP3 MSTORE PUSH1 0x21 SWAP1 DUP3 ADD MSTORE PUSH32 0x506F6F6C2069732066756C6C2C207761697420666F72206E65787420726F756E PUSH1 0x40 DUP3 ADD MSTORE PUSH1 0x19 PUSH1 0xFA SHL PUSH1 0x60 DUP3 ADD MSTORE PUSH1 0x80 ADD SWAP1 JUMP JUMPDEST PUSH1 0x0 DUP1 DUP4 CALLDATALOAD PUSH1 0x1E NOT DUP5 CALLDATASIZE SUB ADD DUP2 SLT PUSH2 0x2EC1 JUMPI DUP3 DUP4 REVERT JUMPDEST DUP4 ADD DUP1 CALLDATALOAD SWAP2 POP PUSH1 0x1 PUSH1 0x1 PUSH1 0x40 SHL SUB DUP3 GT ISZERO PUSH2 0x2EDA JUMPI DUP3 DUP4 REVERT JUMPDEST PUSH1 0x20 ADD SWAP2 POP CALLDATASIZE DUP2 SWAP1 SUB DUP3 SGT ISZERO PUSH2 0x25A0 JUMPI PUSH1 0x0 DUP1 REVERT JUMPDEST PUSH1 0x0 DUP3 NOT DUP3 GT ISZERO PUSH2 0x2F02 JUMPI PUSH2 0x2F02 PUSH2 0x2FB3 JUMP JUMPDEST POP ADD SWAP1 JUMP JUMPDEST PUSH1 0x0 DUP3 PUSH2 0x2F22 JUMPI PUSH4 0x4E487B71 PUSH1 0xE0 SHL DUP2 MSTORE PUSH1 0x12 PUSH1 0x4 MSTORE PUSH1 0x24 DUP2 REVERT JUMPDEST POP DIV SWAP1 JUMP JUMPDEST PUSH1 0x0 DUP2 PUSH1 0x0 NOT DIV DUP4 GT DUP3 ISZERO ISZERO AND ISZERO PUSH2 0x2F41 JUMPI PUSH2 0x2F41 PUSH2 0x2FB3 JUMP JUMPDEST POP MUL SWAP1 JUMP JUMPDEST PUSH1 0x0 DUP3 DUP3 LT ISZERO PUSH2 0x2F58 JUMPI PUSH2 0x2F58 PUSH2 0x2FB3 JUMP JUMPDEST POP SUB SWAP1 JUMP JUMPDEST PUSH1 0x1 DUP2 DUP2 SHR SWAP1 DUP3 AND DUP1 PUSH2 0x2F71 JUMPI PUSH1 0x7F DUP3 AND SWAP2 POP JUMPDEST PUSH1 0x20 DUP3 LT DUP2 EQ ISZERO PUSH2 0x2F92 JUMPI PUSH4 0x4E487B71 PUSH1 0xE0 SHL PUSH1 0x0 MSTORE PUSH1 0x22 PUSH1 0x4 MSTORE PUSH1 0x24 PUSH1 0x0 REVERT JUMPDEST POP SWAP2 SWAP1 POP JUMP JUMPDEST PUSH1 0x0 PUSH1 0x0 NOT DUP3 EQ ISZERO PUSH2 0x2FAC JUMPI PUSH2 0x2FAC PUSH2 0x2FB3 JUMP JUMPDEST POP PUSH1 0x1 ADD SWAP1 JUMP JUMPDEST PUSH4 0x4E487B71 PUSH1 0xE0 SHL PUSH1 0x0 MSTORE PUSH1 0x11 PUSH1 0x4 MSTORE PUSH1 0x24 PUSH1 0x0 REVERT JUMPDEST PUSH4 0x4E487B71 PUSH1 0xE0 SHL PUSH1 0x0 MSTORE PUSH1 0x41 PUSH1 0x4 MSTORE PUSH1 0x24 PUSH1 0x0 REVERT INVALID 0xD8 PUSH9 0x2201C3BF5D79EF710 0x27 0xC4 SWAP13 0xDF 0xDE 0xE9 SWAP16 LOG2 SWAP9 DUP5 DUP10 OR PUSH2 0x8BA1 0x48 0xD0 SWAP9 CALL 0x5F PUSH21 0xA2646970667358221220E473181D101708ACB7F369 SWAP8 CREATE LOG1 0xE0 COINBASE RETURNDATASIZE CHAINID ISZERO 0xCA DUP6 0xF9 PUSH19 0x68E2285A99B360B13964736F6C634300080400 CALLER ",
  "sha1": "b59c0366b350638d1d5913b40b41a7d19b35e74e",
  "source": "// File: @openzeppelin/contracts/utils/Context.sol\n\n// SPDX-License-Identifier: MIT\n\npragma solidity ^0.8.4;\n\n/**\n * @dev Provides information about the current execution context, including the\n * sender of the transaction and its data. While these are generally available\n * via msg.sender and msg.data, they should not be accessed in such a direct\n * manner, since when dealing with meta-transactions the account sending and\n * paying for execution may not be the actual sender (as far as an application\n * is concerned).\n *\n * This contract is only required for intermediate, library-like contracts.\n */\nabstract contract Context {\n    function _msgSender() internal view virtual returns (address) {\n        return msg.sender;\n    }\n\n    function _msgData() internal view virtual returns (bytes calldata) {\n        return msg.data;\n    }\n}\n\n// File: @openzeppelin/contracts/access/Ownable.sol\n\npragma solidity ^0.8.0;\n\n/**\n * @dev Contract module which provides a basic access control mechanism, where\n * there is an account (an owner) that can be granted exclusive access to\n * specific functions.\n *\n * By default, the owner account will be the one that deploys the contract. This\n * can later be changed with {transferOwnership}.\n *\n * This module is used through inheritance. It will make available the modifier\n * `onlyOwner`, which can be applied to your functions to restrict their use to\n * the owner.\n */\nabstract contract Ownable is Context {\n    address private _owner;\n\n    event OwnershipTransferred(address indexed previousOwner, address indexed newOwner);\n\n    /**\n     * @dev Initializes the contract setting the deployer as the initial owner.\n     */\n    constructor() {\n        _setOwner(_msgSender());\n    }\n\n    /**\n     * @dev Returns the address of the current owner.\n     */\n    function owner() public view virtual returns (address) {\n        return _owner;\n    }\n\n    /**\n     * @dev Throws if called by any account other than the owner.\n     */\n    modifier onlyOwner() {\n        require(owner() == _msgSender(), \"Ownable: caller is not the owner\");\n        _;\n    }\n\n    /**\n     * @dev Leaves the contract without owner. It will not be possible to call\n     * `onlyOwner` functions anymore. Can only be called by the current owner.\n     *\n     * NOTE: Renouncing ownership will leave the contract without an owner,\n     * thereby removing any functionality that is only available to the owner.\n     */\n    function renounceOwnership() public virtual onlyOwner {\n        _setOwner(address(0));\n    }\n\n    /**\n     * @dev Transfers ownership of the contract to a new account (`newOwner`).\n     * Can only be called by the current owner.\n     */\n    function transferOwnership(address newOwner) public virtual onlyOwner {\n        require(newOwner != address(0), \"Ownable: new owner is the zero address\");\n        _setOwner(newOwner);\n    }\n\n    function _setOwner(address newOwner) private {\n        address oldOwner = _owner;\n        _owner = newOwner;\n        emit OwnershipTransferred(oldOwner, newOwner);\n    }\n}\n\n// File: @openzeppelin/contracts/utils/Strings.sol\n\npragma solidity ^0.8.0;\n\n/**\n * @dev String operations.\n */\nlibrary Strings {\n    bytes16 private constant _HEX_SYMBOLS = \"0123456789abcdef\";\n\n    /**\n     * @dev Converts a `uint256` to its ASCII `string` decimal representation.\n     */\n    function toString(uint256 value) internal pure returns (string memory) {\n        // Inspired by OraclizeAPI's implementation - MIT licence\n        // https://github.com/oraclize/ethereum-api/blob/b42146b063c7d6ee1358846c198246239e9360e8/oraclizeAPI_0.4.25.sol\n\n        if (value == 0) {\n            return \"0\";\n        }\n        uint256 temp = value;\n        uint256 digits;\n        while (temp != 0) {\n            digits++;\n            temp /= 10;\n        }\n        bytes memory buffer = new bytes(digits);\n        while (value != 0) {\n            digits -= 1;\n            buffer[digits] = bytes1(uint8(48 + uint256(value % 10)));\n            value /= 10;\n        }\n        return string(buffer);\n    }\n\n    /**\n     * @dev Converts a `uint256` to its ASCII `string` hexadecimal representation.\n     */\n    function toHexString(uint256 value) internal pure returns (string memory) {\n        if (value == 0) {\n            return \"0x00\";\n        }\n        uint256 temp = value;\n        uint256 length = 0;\n        while (temp != 0) {\n            length++;\n            temp >>= 8;\n        }\n        return toHexString(value, length);\n    }\n\n    /**\n     * @dev Converts a `uint256` to its ASCII `string` hexadecimal representation with fixed length.\n     */\n    function toHexString(uint256 value, uint256 length) internal pure returns (string memory) {\n        bytes memory buffer = new bytes(2 * length + 2);\n        buffer[0] = \"0\";\n        buffer[1] = \"x\";\n        for (uint256 i = 2 * length + 1; i > 1; --i) {\n            buffer[i] = _HEX_SYMBOLS[value & 0xf];\n            value >>= 4;\n        }\n        require(value == 0, \"Strings: hex length insufficient\");\n        return string(buffer);\n    }\n}\n\n// File: contracts/UpVsDownGameV2.sol\n\npragma solidity >=0.4.22 <0.9.0;\n\n\ncontract UpVsDownGameV2 is Ownable {\n\n  struct BetGroup {\n    uint256[] bets;\n    address[] addresses;\n    string[] avatars;\n    string[] countries;\n    string[] whiteLabelIds;\n    uint256 total;\n    uint256 distributedCount;\n    uint256 totalDistributed;\n  }\n\n  struct Round {\n    bool created;\n    int32 startPrice;\n    int32 endPrice;\n    uint256 minBetAmount;\n    uint256 maxBetAmount;\n    uint256 poolBetsLimit;\n    BetGroup upBetGroup;\n    BetGroup downBetGroup;\n    int64 roundStartTime;\n    uint256 tradesStartTimeMS;\n    uint256 tradesEndTimeMS;\n  }\n\n  struct Distribution {\n    uint256 fee;\n    uint256 totalMinusFee;\n    uint256 pending;\n  }\n\n  address public gameController;\n  mapping(bytes => Round) public pools;\n  uint8 public feePercentage = 5;\n  address public feeAddress = msg.sender;\n  bool public isRunning;\n  bytes public notRunningReason;\n\n  // Errors\n\n  error PendingDistributions();\n\n  // Events\n\n  event RoundStarted(bytes poolId, int64 timestamp, int32 price, uint256 minTradeAmount, uint256 maxTradeAmount, uint256 poolTradesLimit, bytes indexed indexedPoolId);\n  event RoundEnded(bytes poolId, int64 timestamp, int32 startPrice, int32 endPrice, bytes indexed indexedPoolId);\n  event TradePlaced(bytes poolId, address sender, uint256 amount, string prediction, uint256 newTotal, bytes indexed indexedPoolId, address indexed indexedSender, string avatarUrl, string countryCode, int64 roundStartTime, string whiteLabelId);\n  event TradeReturned(bytes poolId, address sender, uint256 amount, string whiteLabelId);\n  event GameStopped(bytes reason);\n  event GameStarted();\n  event RoundDistributed(bytes poolId, uint totalWinners, uint from, uint to, int64 timestamp);\n  event TradeWinningsSent(bytes poolId, address sender, uint256 tradeAmount, uint256 winningsAmount, address indexed indexedSender, string whiteLabelId);\n\n  // Modifiers\n\n  modifier onlyGameController () {\n    require(msg.sender == gameController, 'Only game controller can do this');\n    _;\n  }\n\n  modifier onlyOpenPool (bytes calldata poolId) {\n    require(isPoolOpen(poolId), 'This pool has a round in progress');\n    _;\n  }\n\n  modifier onlyGameRunning () {\n    require(isRunning, 'The game is not running');\n    _;\n  }\n\n  modifier onlyPoolExists (bytes calldata poolId) {\n    require(pools[poolId].created == true, 'Pool does not exist');\n    _;\n  }\n\n  constructor(address newGameController) {\n    gameController = newGameController;\n  }\n\n  // Methods\n\n  function changeGameControllerAddress(address newGameController) public onlyOwner {\n    gameController = newGameController;\n  }\n\n  function changeGameFeePercentage(uint8 newFeePercentage) public onlyOwner {\n    feePercentage = newFeePercentage;\n  }\n\n  function changeGameFeeAddress(address newFeeAddress) public onlyOwner {\n    feeAddress = newFeeAddress;\n  }\n\n  function stopGame(bytes calldata reason) public onlyOwner {\n    isRunning = false;\n    notRunningReason = reason;\n    emit GameStopped(reason);\n  }\n\n  function startGame() public onlyOwner {\n    isRunning = true;\n    notRunningReason = '';\n    emit GameStarted();\n  }\n\n  function createPool(bytes calldata poolId, uint256 minBetAmount , uint256 maxBetAmount, uint256 poolBetsLimit) public onlyGameController {\n    pools[poolId].created = true;\n    pools[poolId].minBetAmount = minBetAmount;\n    pools[poolId].maxBetAmount = maxBetAmount;\n    pools[poolId].poolBetsLimit = poolBetsLimit;\n  }\n\n  function trigger(\n    bytes calldata poolId,\n    int64 timeMS,\n    uint256 tradesStartTimeMS,\n    uint256 tradesEndTimeMS,\n    int32 price,\n    uint32 batchSize\n  ) public onlyGameController onlyPoolExists(poolId) {\n    Round storage currentRound = pools[poolId];\n\n    if(isPoolOpen(poolId)) {\n      require(isRunning, 'The game is not running, rounds can only be ended at this point');\n      currentRound.startPrice = price;\n      currentRound.roundStartTime = timeMS;\n      currentRound.tradesStartTimeMS = tradesStartTimeMS;\n      currentRound.tradesEndTimeMS = tradesEndTimeMS;\n      \n      emit RoundStarted(poolId, timeMS, currentRound.startPrice, currentRound.minBetAmount, currentRound.maxBetAmount, currentRound.poolBetsLimit, poolId);\n    } else if (currentRound.endPrice == 0) {\n      currentRound.endPrice = price;\n\n      emit RoundEnded(poolId, timeMS, currentRound.startPrice, currentRound.endPrice, poolId);\n\n      distribute(poolId, batchSize, timeMS);\n    } else {\n      revert PendingDistributions();\n    }\n  }\n\n  function returnBets (\n    bytes calldata poolId,\n    BetGroup storage group,\n    uint32 batchSize\n  ) private {\n    uint256 pending = group.bets.length - group.distributedCount;\n    uint256 limit = pending > batchSize ? batchSize : pending;\n    uint256 to = group.distributedCount + limit;\n\n    for (uint i = group.distributedCount; i < to; i ++) {\n      sendEther(group.addresses[i], group.bets[i]);\n      emit TradeReturned(poolId, group.addresses[i], group.bets[i], group.whiteLabelIds[i]);\n    }\n\n    group.distributedCount = to;\n  }\n\n  function distribute (\n    bytes calldata poolId,\n    uint32 batchSize,\n    int64 timeMS\n  ) public onlyGameController onlyPoolExists(poolId) {\n    Round storage round = pools[poolId];\n\n    if (round.upBetGroup.bets.length == 0 || round.downBetGroup.bets.length == 0) {\n      BetGroup storage returnGroup = round.downBetGroup.bets.length == 0 ? round.upBetGroup : round.downBetGroup;\n\n      uint fromReturn = returnGroup.distributedCount;\n      returnBets(poolId, returnGroup, batchSize);\n      emit RoundDistributed(poolId, returnGroup.bets.length, fromReturn, returnGroup.distributedCount,timeMS);\n\n      if (returnGroup.distributedCount == returnGroup.bets.length) {\n        clearPool(poolId);\n      }\n      return;\n    }\n\n\n    BetGroup storage winners = round.downBetGroup;\n    BetGroup storage losers = round.upBetGroup;\n\n    if (round.startPrice < round.endPrice) {\n      winners = round.upBetGroup;\n      losers = round.downBetGroup;\n    }\n\n    Distribution memory dist = calculateDistribution(winners, losers);\n    uint256 limit = dist.pending > batchSize ? batchSize : dist.pending;\n    uint256 to = winners.distributedCount + limit;\n\n    for (uint i = winners.distributedCount; i < to; i++) {\n      uint256 winnings = ((winners.bets[i] * 100 / winners.total) * dist.totalMinusFee / 100);\n      sendEther(winners.addresses[i], winnings + winners.bets[i]);\n      emit TradeWinningsSent(poolId, winners.addresses[i], winners.bets[i], winnings, winners.addresses[i], winners.whiteLabelIds[i]);\n      winners.totalDistributed = winners.totalDistributed + winnings;\n    }\n\n    emit RoundDistributed(poolId, winners.bets.length, winners.distributedCount, to, timeMS);\n\n    winners.distributedCount = to;\n    if (winners.distributedCount == winners.bets.length) {\n      sendEther(feeAddress, dist.fee + dist.totalMinusFee - winners.totalDistributed);\n      clearPool(poolId);\n    }\n  }\n\n  function calculateDistribution (\n    BetGroup storage winners,\n    BetGroup storage losers\n  ) private view returns (Distribution memory) {\n    uint256 fee = feePercentage * losers.total / 100;\n    uint256 pending = winners.bets.length - winners.distributedCount;\n    return Distribution({\n      fee: fee,\n      totalMinusFee: losers.total - fee,\n      pending: pending\n    });\n  }\n\n  function clearPool (\n    bytes calldata poolId\n  ) private {\n    delete pools[poolId].upBetGroup;\n    delete pools[poolId].downBetGroup;\n    delete pools[poolId].startPrice;\n    delete pools[poolId].endPrice;\n  }\n\n  function hasPendingDistributions(\n    bytes calldata poolId\n  ) public view returns (bool) {\n    return (pools[poolId].upBetGroup.bets.length + pools[poolId].downBetGroup.bets.length) > 0;\n  }\n\n  function isPoolOpen(\n    bytes calldata poolId\n  ) public view returns (bool) {\n    return pools[poolId].startPrice == 0;\n  }\n\n  function addBet (\n    BetGroup storage betGroup,\n    uint256 amount,\n    string calldata avatar,\n    string calldata countryCode,\n    string calldata whiteLabelId\n  ) private returns (uint256) {\n    betGroup.bets.push(amount);\n    betGroup.addresses.push(msg.sender);\n    betGroup.avatars.push(avatar);\n    betGroup.countries.push(countryCode);\n    betGroup.whiteLabelIds.push(whiteLabelId);\n    betGroup.total += amount;\n    return betGroup.total;\n  }\n\n  struct makeTradeStruct{\n    bytes poolId;\n    string avatarUrl;\n    string countryCode;\n    bool upOrDown;\n    string whiteLabelId;\n  }\n\n  struct userDataStruct{\n      string avatar;\n      string countryCode;\n      string whiteLabelId;\n      int64 roundStartTime;\n    }\n\n  function makeTrade(\n    makeTradeStruct calldata userTrade\n  ) public payable onlyOpenPool(userTrade.poolId) onlyGameRunning onlyPoolExists(userTrade.poolId) {\n\n    require(msg.value > 0, \"Needs to send Matic to trade\");\n    require(msg.value >= pools[userTrade.poolId].minBetAmount, \"Trade amount should be higher than the minimum\");\n    require(msg.value <= pools[userTrade.poolId].maxBetAmount, \"Trade amount should be lower than the maximum\");\n    \n    //Prevent making trade while end round transaction being confirmed on blockchain\n    require(block.timestamp <= pools[userTrade.poolId].tradesEndTimeMS , \"Round is closing\");\n\n    //Prevent making trade while round starts\n    require(block.timestamp >= pools[userTrade.poolId].tradesStartTimeMS , \"Round not started yet\");\n\n    uint256 newTotal;\n\n    if (userTrade.upOrDown) {\n      require(pools[userTrade.poolId].upBetGroup.bets.length <= pools[userTrade.poolId].poolBetsLimit-1,\"Pool is full, wait for next round\");\n      newTotal = addBet(pools[userTrade.poolId].upBetGroup, msg.value, userTrade.avatarUrl, userTrade.countryCode, userTrade.whiteLabelId);\n    } else {\n      require(pools[userTrade.poolId].downBetGroup.bets.length <= pools[userTrade.poolId].poolBetsLimit-1,\"Pool is full, wait for next round\");\n      newTotal = addBet(pools[userTrade.poolId].downBetGroup, msg.value, userTrade.avatarUrl, userTrade.countryCode, userTrade.whiteLabelId);\n    }\n\n    userDataStruct memory userTradeData;\n    userTradeData.avatar = userTrade.avatarUrl;\n    userTradeData.countryCode = userTrade.countryCode;\n    userTradeData.whiteLabelId = userTrade.whiteLabelId;\n    userTradeData.roundStartTime = pools[userTrade.poolId].roundStartTime;\n    \n    emit TradePlaced(userTrade.poolId, msg.sender, msg.value, (userTrade.upOrDown) ? \"UP\":\"DOWN\", newTotal, \n    userTrade.poolId, msg.sender, userTradeData.avatar, userTradeData.countryCode, \n    userTradeData.roundStartTime, userTradeData.whiteLabelId);\n  }\n\n  function sendEther (\n    address to, \n    uint256 amount\n  ) private {\n    (bool sent, bytes memory data) = payable(to).call{gas: 0, value: amount}(\"\");\n    require(sent, \"Couldn't send ether\");\n  } \n}",
  "sourcePath": "contracts/core/test.sol",
  "type": "contract"
}